:100000001C308A00872C0000FF00030E8301A10032
:100010000A08A0008A010408A2007708A300780853
:10002000A4007908A5007A08A60003170D08031399
:10003000A70003170F080313A80003170C080313E6
:10004000A90003170E080313AA00831383128C3030
:100050008400001C2D280C184E2822088400230838
:10006000F7002408F8002508F9002608FA002708F8
:1000700003178D000313280803178F0003132908A3
:1000800003178C0003132A0803178E00031320089C
:100090008A00210E8300FF0E7F0E09008A110A12CA
:1000A00061280A108A100A118207433461346C34C3
:1000B00069346234723461347434653464342134A4
:1000C00000348E01FF308F0006308E000130B807FB
:1000D0000318B90A0319BA0A0319BB0A0C108A11CA
:1000E0000A122D28533A6139F434EE330D0500001D
:1000F000202AC926C527552A0D050000D3306D38A2
:10010000EC34EE33BA060A00D332EE396F393D10C3
:100110002526F504C4326739E5323D102517323300
:100120000922E939F41EA0122E196610E3362010B8
:10013000F4306C36BD126610E3360D050000AD16C6
:10014000AD1600000B08E8008B13831603178C17FD
:100150000C140000000083120313E81B8B17031715
:100160000C087F390319F8280313E80003170D085A
:100170000313E90003170F080313EA0068080C1EB5
:10018000BF289900690803178D0003136A08031735
:100190008F0003130B08EB008B13831603178C17C8
:1001A0000C140000000083120313EB1B8B170317C2
:1001B0000C0D0E0D7F390319F8280313E8000317FF
:1001C0000D080313E90003170F080313EA0068087A
:1001D0000C1EE8289900690803178D0003136A08AC
:1001E00003178F008D0A03198F0A0313A228031720
:1001F0000313080094138C1183166C088312930068
:100200000230941B0A298C1D032900308316111B10
:1002100001308312F8000800141383169115911908
:100220000F2977189112771C91161116111A162999
:1002300083121308F80008008316111411181E29E0
:1002400083122C088316EC008312FA2083166908A7
:10025000EC008312FA207808B700831691149118E5
:100260002F2983122C0801388316EB00EC0083122F
:10027000FA20F7010C2178088316EA006A08F800D2
:1002800083120800831611141118442983122C08B4
:100290008316EC008312FA2083163F08EC008312C9
:1002A000FA2083164008EC008312FA207808B70081
:1002B0008316111511195A298312080083164F0845
:1002C000D6005308D606D61F6A2903110310CF1B88
:1002D00003149D294F08D6005208D7004E08D702B4
:1002E00003197829D61F9D290308013A83009D2907
:1002F0005308D7004F08D70203198429D61F9D2918
:100300000308013A83009D295408D7005008D702FA
:1003100003199029D61F9D290308013A83009D29BE
:100320005508D7005108D70203199C29D61F9D29CB
:100330000308013A83009D290310831208008316E5
:1003400052080319102ADA0056080319102ADA078E
:100350000318B1297F30DA02031C102A0319102A6E
:10036000B5298130DA070318102A5A08F700F80176
:10037000F901FA015308DE00DE175408DD005508C4
:10038000DC001830DA00DB015C1CDE295908FA07B2
:10039000031CD029F90A031DD029F80A0319DB1719
:1003A0005808F907031CD729F80A0319DB1757085F
:1003B000D400D4175408F8070318DB17DB0DF80C2A
:1003C000F90CFA0CDE0CDD0CDC0C0310DA0BC32983
:1003D0000130F7070318102AF81BF529DE0DFA0D76
:1003E000F90DF80DF7030319102ADE1F062AFA0A81
:1003F000031D062AF90A031D062AF80A031D062A08
:10040000F80CF90CFA0CF70A0319102A5308DB0050
:100410005708DB06DB1F0E2AF817142AF813142AD4
:10042000F701F801F901FA01831208008E30F70094
:1004300083164E08F7024F08F9005008F800F91724
:10044000F70803192E2A0310F908031D2A2AF808B1
:1004500003192E2AF90CF80CF70B232ACF1F352A83
:10046000F809F909F80A0319F90A83120800831632
:1004700011141118392A83122C088316EC008312E8
:10048000FA2083166408EC008312FA2083166608AB
:10049000E700E801E8016608EC008312FA20831601
:1004A0006508E700E8016508EC008312FA20780887
:1004B000B7008316111511195B2A831208007E08F4
:1004C0008316D1007D08D0007C08CF007B08CE00C9
:1004D000D501D401D301D20183125E210318852AEC
:1004E000B8308316D100FE30D0007F30CF00873087
:1004F000CE007E08D5007D08D4007C08D3007B08A0
:10050000D20083125E21031C882A0030F800B22A30
:100510007E088316D5007D08D4007C08D3007B08B4
:10052000D200D901D801D7018630D60083129F218D
:100530007A088316D1007908D0007808CF007708B0
:10054000CE00831216227908F5007808F4004430B2
:100550008316E4007908E6007808E5008312372264
:100560000130F800080001308316E90083121C21D5
:1005700078088316E4006308FA006208E50063085F
:10058000E600640EF7000F30F70577080139F80030
:100590007818D12A65088400831366188317001021
:1005A000D72A65088400831366188317001462082D
:1005B000F8006308FA007808E5006308E600640CB8
:1005C000F700F70CF70C1F30F70577080139F80032
:1005D0007818F12A650884008313661883170011C0
:1005E000F72A6508840083136618831700156308CB
:1005F000FA006208E5006308E600640CF700F70CF7
:100600003F30F70577080139F80078180E2B650898
:1006100084008313661883178010142B65088400E8
:1006200083136618831780146208F8006308FA00C1
:100630007808E5006308E600640EF700F70CF70C95
:100640000330F70577080139F80078182E2B650874
:1006500084008313661883178011342B6508840087
:1006600083136618831780156308FA006208E50093
:100670006308E600F701E41B771477080139F800F6
:100680007818492B650884008313661883170012B5
:100690004F2B650884008313661883170016831296
:1006A00008008316E808031D632B5030E90083120D
:1006B0001C2101307807F7000310F70D7708F800C8
:1006C000762B762B8316680B732B7030E900831220
:1006D0001C2101307807F7000310F70D7708F800A8
:1006E000762B762B8316FF30F8008312080020301B
:1006F0000317A400A001A101A201A3011B08FA0095
:100700001A08F9001908F8001808F7000310771CF8
:10071000972B1C08A0071D0803181D0FA1071E0812
:1007200003181E0FA2071F0803181F0FA307A30C0F
:10073000A20CA10CA00CFA0CF90CF80CF70CA40BF1
:10074000862B031308008318A82B203084008317FE
:10075000F701F801F901FA010317A001A101A201B3
:10076000A3011F081E041D041C040319E72B2030DD
:10077000A4000310980D990D9A0D9B0DA00DA10DCD
:10078000A20DA30D1F082302031DD02B1E08220259
:10079000031DD02B1D082102031DD02B1C08200295
:1007A000031CE12B1C08A0021D08031C1D0FA10245
:1007B0001E08031C1E0FA2021F08031C1F0FA3020A
:1007C0000314F70DF80DF90DFA0DA40BB92B200841
:1007D0008000840A21088000840A22088000840A9C
:1007E000230880000313080003179B019A010930B6
:1007F000990098019F019E019D01831603136E08C5
:10080000831203179C00031377237A0803179700BA
:1008100079089600780895007708940017089B00DF
:1008200016089A0015089900140898009F019E0167
:1008300006309D0077309C00031377237A08031756
:100840009700790896007808950077089400F430AE
:100850009407013003180230950700300318013067
:1008600096070030031801309707831017089B0084
:1008700016089A0015089900140898009F019E0117
:1008800003309D00E8309C000313A3237A0803176C
:1008900093007908920078089100770890009B01F6
:1008A0009A01831603136D088312031799008316A8
:1008B00003136C0883120317980013089F00120893
:1008C0009E0011089D0010089C00031377237A08EE
:1008D0000317970079089600780895007708940028
:1008E0000310130CFA00120CF900110CF800100C94
:1008F000F700940778080318780F9507790803180C
:10090000790F96077A0803187A0F9707831017084C
:100910009B0016089A0015089900140898009F017A
:100920009E0103309D00E8309C000313A3230800C0
:100930008316911491189A2C83122C088316EC00BC
:100940008312FA2083166808EC008312FA207808D4
:10095000B700831691149118AB2C83122C08013820
:100960008316EB00EC008312FA200130F7000C2113
:1009700078088316EC01EB00EA00E901F701831225
:100980000C2178088316E9046908F8006A08F90060
:100990008312080083166A08EC00ED01EE016B0873
:1009A000EF00FA01F700F7080319DB2C0310EC0D38
:1009B000ED0DF70BD62C01306C07F8006D08FA002E
:1009C0000318FA0A7A08F9008312080083166408EB
:1009D000F8006508FA006408E6006508E700E80129
:1009E00083125123831666088400831367188317C4
:1009F000840A800184037808800004306407F800CA
:100A00006508FA000318FA0A7808E6007A08E70091
:100A10004630E90083121C21013078078316E80074
:100A200066088400831367188317840A800184038F
:100A3000680880000A306407F8006508FA000318A7
:100A4000FA0A7808E6007A08E700043064078400B0
:100A5000831365188317840A0008E90084030008DB
:100A6000E80064088400831365188317840A00086B
:100A7000EB0084030008EA006908ED006808EC0058
:100A80006A08EE008312F423831666088400831339
:100A90006718831777088000840A78088000840A22
:100AA00079088000840A7A08800006306407F8001C
:100AB0006508FA000318FA0A7808E6007A08E700E1
:100AC0005130E8008312982479088316E9007808E9
:100AD000E8006908EB006808EA008312CA2483165C
:100AE00066088400831367188317840A79088000D6
:100AF0008403780880000E306407F8006508FA0067
:100B00000318FA0A7808E6007A08E7000630640756
:100B10008400831365188317840A0008E90084039E
:100B20000008E80064088400831365188317840AAA
:100B30000008EB0084030008EA006908ED0068087B
:100B4000EC006A08EE008312F42383166608840022
:100B500083136718831777088000840A7808800059
:100B6000840A79088000840A7A08800002306407C9
:100B7000F8006508FA000318FA0A7808E6007A080F
:100B8000E7000130E80083125123831666088400D1
:100B9000831367188317840A800184037808800010
:100BA00008306407F8006508FA000318FA0A7808A4
:100BB000E6007A08E7007130E8008312982479088B
:100BC0008316E9007808E8006908EB006808EA0085
:100BD0008312CA2483166608840083136718831758
:100BE000840A790880008403780880006208840001
:100BF000831363188317801D372E08306407F800AD
:100C00006508FA000318FA0A7808E6007A08E7008F
:100C100066088400831367188317840A0008E900B4
:100C200084030008E8000630640784008313651815
:100C30008317840A0008FA00840300086802F7009A
:100C40007A08031C7A0F262E6908272E6902FA00FB
:100C50007708E8007A08E9006608840083136718BB
:100C60008317840A690880008403680880001230B2
:100C70006407F8006508FA000318FA0A7808E60025
:100C80007A08E70008306407840083136518831727
:100C9000840A0008E90084030008E80002306407C1
:100CA0008400831365188317840A0008EB0084030B
:100CB0000008EA006908ED006808EC006A08EE0028
:100CC0008312F4238316660884008313671883173E
:100CD00077088000840A78088000840A79088000F8
:100CE000840A7A0880008312080003179B019A0186
:100CF0000930990098019F019E019D0183160313FD
:100D00006608831203179C00031377237A0883165F
:100D1000EE007908ED007808EC007708EB006E082B
:100D2000831203179B00831603136D0883120317A6
:100D30009A00831603136C08831203179900831615
:100D400003136B088312031798009F019E0106305E
:100D50009D0077309C00031377237A088316EE00FA
:100D60007908ED007808EC007708EB00F430EB0729
:100D7000013003180230EC07003003180130ED0792
:100D8000003003180130EE0783106E08831203173A
:100D90009B00831603136D08831203179A008316B2
:100DA00003136C08831203179900831603136B084F
:100DB0008312031798009F019E0103309D00E830C5
:100DC0009C000313A3237A088316EA007908E9003C
:100DD0007808E8007708E7006508831203179B008E
:100DE000831603136408831203179A0083160313F0
:100DF0006308831203179900831603136208831292
:100E0000031798009F019E0103309D00E8309C006D
:100E1000031377237A088316EE007908ED0078082B
:100E2000EC007708EB0003106A0CFA00690CF9007B
:100E3000680CF800670CF700EB0778080318780FC8
:100E4000EC0779080318790FED077A0803187A0F71
:100E5000EE0783106E08831203179B00831603139B
:100E60006D08831203179A00831603136C0883120C
:100E700003179900831603136B0883120317980056
:100E8000831603136A08831203179F008316031344
:100E90006908831203179E008316031368088312E0
:100EA00003179D00831603136708831203179C0022
:100EB0000313A32308008316E701E601E501E4011B
:100EC000E901E801E208031D682FE3080319A22FD6
:100ED00001306202E4006308E5000030031C0130C9
:100EE000E502E601E701EA016508EB006608EC00AF
:100EF0006708ED00EA08031D862FEB08031D862F07
:100F0000EC08031D862FED0803198F2F0310E70C43
:100F1000E60CE50CE40CE80A0319E90A732F6808EB
:100F2000EB00EA016408F700F801F901FA0177081B
:100F30006A04F70078086B04F800F9007708F800F5
:100F4000A52FA52F0030F800F900831208006930A2
:100F50008400831300080319BA2F0230F800F70148
:100F6000F70BB02FF80BAF2F9730F700F70BB62F1A
:100F7000800BAD2F08008E30F70083165308F80061
:100F80005208F900FA01F808031DD02F7908F8007B
:100F9000F9010830F702F808031DD02FF701D82F08
:100FA0000310F81BD72FF90DF80DF703D02FF81306
:100FB00083120800831611141118DC2FB430EC00D2
:100FC0008312FA2006308316EC008312FA2083166F
:100FD00011151119E92F831208003C0884008313AE
:100FE0003D188317831628088000840A8001831225
:080FF000BC0A0319BD0A080048
:101000008316C008031D1428BF08031D14283E08BA
:101010004E3C031C1428031D11283D081F3C031CD3
:1010200014280030F8004A29DB01DA010830D90021
:10103000E830D800E301C130E2008A118312B32204
:101040008A158316E301C130E200E501C230E400F5
:101050008A118312E6248A158316411C52284E30C9
:101060004C07F7004D08F800023003180330F8076A
:101070004E08F900003003180130F9074F08FA0054
:10108000003003180130FA077708D80778080318EA
:10109000780FD90779080318790FDA077A08031847
:1010A0007A0FDB07411D7D28B2304C07F7004D0851
:1010B000F800023003180330F8074E08F90000303A
:1010C00003180130F9074F08FA0000300318013007
:1010D000FA070310F70DF80DF90DFA0D7708D80788
:1010E00078080318780FD90779080318790FDA07F9
:1010F0007A0803187A0FDB07A228C11CA2289430B3
:101100004C07F7004D08F800023003180330F807C9
:101110004E08F900003003180130F9074F08FA00B3
:10112000003003180130FA077708D8077808031849
:10113000780FD90779080318790FDA077A080318A6
:101140007A0FDB07C11DC72894305007F7005108FC
:10115000F800023003180330F8075208F900003095
:1011600003180130F9075308FA0000300318013062
:10117000FA077708D80778080318780FD90779088D
:101180000318790FDA077A0803187A0FDB07411E74
:1011900048292630D807023003180330D907003019
:1011A00003180130DA07003003180130DB0740086C
:1011B0005B02031CF028031DED283F085A02031CA4
:1011C000F028031DED283E085902031CF028031DDA
:1011D000ED2858083D020318F0280030F8004A298D
:1011E00058083D02DC003E08DD005908031C590F79
:1011F000DD023F08DE005A08031C5A0FDE024008D9
:10120000DF005B08031C5B0FDF025F08E5005E0880
:10121000E4005D08E3005C08E2004408E6008A118F
:10122000831275268A1578088316E1007708E00096
:10123000C11D20294808E00749080318490FE107A4
:101240006108E3006008E2008A1183125B278A15B7
:1012500079088316E3007808E2007130E40063083F
:10126000E6006208E5008A11831237228A15831688
:1012700040088312B60083163F088312B500831618
:101280003E088312B40083163D088312B300831610
:101290000130F8008312080083163D080138BE00B3
:1012A000BF013E08C0008A11831242218A15390805
:1012B000B1003808B00013308316E9008A11831298
:1012C0001C218A1578080739031D9129AD08031DD3
:1012D0006C29AE0803199029300838028316BE0025
:1012E000831239088316BF0083123108031C310FA3
:1012F0007A297D298316BF0283122E0883163F02A6
:101300000318842983129029031D8C293E08831217
:101310002D020318902983160030F800A4298312A7
:101320005B290B308316BF000130C0008A11831285
:1013300042218A158316BF01C0018A1183124221FE
:101340008A150130F8008316831208000A308316CC
:10135000BF000430C0008A11831242218A158430F4
:101360008316E9008A1183121C218A157808EF3947
:10137000F40084308316BF007408C0008A11831201
:1013800042218A150B308316BF000130C0008A113C
:10139000831242218A15FE01FD010B30FC0036301C
:1013A000FB008316E3017430E2008A118312B3223A
:1013B0008A158316E3017430E200E501A030E400F1
:1013C0008A118312E6248A15741C0B2A4E30831668
:1013D0002A07F7002B08F800023003180330F8073B
:1013E0002C08F900003003180130F9072D08FA0025
:1013F000003003180130FA077708FB077808031854
:10140000780FFC0779080318790FFD077A0803188D
:101410007A0FFE078312741D382AB23083162A070A
:10142000F7002B08F800023003180330F8072C08E7
:10143000F900003003180130F9072D08FA000030D8
:1014400003180130FA070310F70DF80DF90DFA0D26
:101450007708FB0778080318780FFC07790803184A
:10146000790FFD077A0803187A0FFE075E2A8312A8
:10147000F41C5F2A943083162A07F7002B08F80023
:10148000023003180330F8072C08F9000030031865
:101490000130F9072D08FA00003003180130FA076F
:1014A0007708FB0778080318780FFC0779080318FA
:1014B000790FFD077A0803187A0FFE078312F41DCF
:1014C000862A943083162E07F7002F08F800023082
:1014D00003180330F8073008F90000300318013012
:1014E000F9073108FA00003003180130FA077708CD
:1014F000FB0778080318780FFC0779080318790FA1
:10150000FD077A0803187A0FFE078312741EAD2AAE
:10151000263083163207F7003308F800023003182C
:101520000330F8073408F900003003180130F907D8
:101530003508FA00003003180130FA077708FB0776
:1015400078080318780FFC0779080318790FFD074E
:101550007A0803187A0FFE0783127E08B6007D080A
:10156000B5007C08B4007B08B3007B08F7007C085A
:10157000F8007D08F9007E08FA007A08B6007908BC
:10158000B5007808B4007708B30001308316BF00B7
:10159000E830C0008A11831242218A15360883166A
:1015A000C000831235088316BF00831234088316E7
:1015B000BE00831233088316BD0083120020013061
:1015C0008316BF00C0008A11831242218A15403061
:1015D0008316BD0083124C21F808031DF22A003047
:1015E000F800102B01308316BF000230C0008A11B2
:1015F000831242218A158316BD0183124C21F808FB
:10160000031D052B0030F800102B01308316BF009E
:10161000E830C0008A11831242218A150130F80097
:101620008A110A16602D0310690CFF3EEA0083162A
:10163000E3016B30E2008A118312B3228A1583160C
:10164000E3016B30E200E501A030E4008A1183126F
:10165000E6248A15E808031DE02B69080C3A0319F3
:101660003B2B023A0319452B1E3A03194F2B023A22
:101670000319592B632B57308316BF001830C00055
:101680008A11831242218A15662B57308316BF00B8
:101690003030C0008A11831242218A15662B5730E0
:1016A0008316BF004030C0008A11831242218A1580
:1016B000662B57308316BF005030C0008A1183124A
:1016C00042218A15662B0030F800652D56308316AE
:1016D000BF000830C0008A11831242218A155030A1
:1016E0008316BF0083126A088316C0008A11831212
:1016F00042218A1583163108E5003008E4002F08DE
:10170000E3002E08E200831269088316E6008A11BE
:10171000831275268A157808ED007708EC006D08AD
:101720008316E30083126C088316E2008A11831289
:101730005B278A157908F4007808F3005130831686
:10174000E4007908E6007808E5008A118312372260
:101750008A1583162D08E5002C08E4002B08E30009
:101760002A08E200831269088316E6008A118312B0
:1017700075268A157808EF007708EE006F08003CA0
:101780000318CB2BFF3A031DC92B6E08003C03182E
:10179000CB2BFF30D52B01306E02F7006F08FA001B
:1017A0000030031C0130FA027708F300463083163C
:1017B000BF007308C0008A11831242218A15332D9D
:1017C000680B302D6908083A0319F02B023A031907
:1017D0002E2C063A03196D2C023A0319AC2CEA2C74
:1017E00048308316BF001030C0008A118312422196
:1017F0008A1547308316BF000830C0008A11831253
:1018000042218A1532308316BF000230C0008A118F
:10181000831242218A1530308316BF000C30C0007D
:101820008A11831242218A15FF308316BF000130CE
:10183000C0008A11831242218A1530308316BF00FE
:10184000C0008A11831242218A15FF308316BF001F
:10185000C0018A11831242218A15ED2C483083166B
:10186000BF002830C0008A11831242218A154730F8
:101870008316BF000830C0008A11831242218A15E6
:1018800032308316BF000330C0008A118312422118
:101890008A1530308316BF000930C0008A118312C8
:1018A00042218A15FF308316BF000130C0008A1123
:1018B000831242218A1530308316BF002030C000C9
:1018C0008A11831242218A15FF308316BF00C0019E
:1018D0008A11831242218A15ED2C48308316BF00ED
:1018E0003830C0008A11831242218A15473083168E
:1018F000BF000830C0008A11831242218A1532309D
:101900008316BF000330C0008A11831242218A155A
:1019100030308316BF000830C0008A118312422184
:101920008A15FF308316BF000130C0008A11831270
:1019300042218A1530308316BF002030C0008A1142
:10194000831242218A15FF308316BF00C0018A111D
:10195000831242218A15ED2C48308316BF00C00047
:101960008A11831242218A1547308316BF0008303E
:10197000C0008A11831242218A1532308316BF00BB
:101980000330C0008A11831242218A153030831639
:10199000BF000730C0008A11831242218A15FF3030
:1019A0008316BF000130C0008A11831242218A15BC
:1019B00030308316BF002030C0008A1183124221CC
:1019C0008A15FF308316BF00C0018A11831242219D
:1019D0008A15ED2C0030F800652D70308316BF009D
:1019E00083126A088316C0008A11831242218A1565
:1019F00083163508E5003408E4003308E3003208B4
:101A0000E200831269088316E6008A1183127526A4
:101A10008A157808F1007708F000EB1D172D831662
:101A20002608F00727080318270FF107831271080B
:101A30008316E3007008E2008A1183125B278A157F
:101A40007908F4007808F30071308316E40079080F
:101A5000E6007808E5008A11831237228A15332DB3
:101A60000030F800652D36088316C0008312350853
:101A70008316BF00831234088316BE008312330816
:101A80008316BD008312002001308316E9008A11FD
:101A900083121C218A157808F20001308316BF00DA
:101AA0000230C0008A11831242218A158316BD01BB
:101AB00083124C2101308316BF007208C0008A11C6
:101AC000831242218A150130F80008007B080319AF
:101AD000382E8316A8002008031D702D8312382E7F
:101AE000A802031C7A2D7F30A807031C792D8312CE
:101AF000382E842D8130A8020318802D8312382EB1
:101B0000031D842D8312382E2808F700F801F901EF
:101B1000FA01A7017C08A600A6177D08A5007E088B
:101B2000A4001930A8002308A4020318A72D01302F
:101B3000A5020318A72DA6020318A72DA7020318B4
:101B4000A72DA70AA60AA50A2308A407D92D2208AB
:101B5000A5020318C22D0130A6020318C22DA70248
:101B60000318C22DA70AA60A2208A5072308A4075E
:101B7000031CD92DA50A031DD92DA60A031DD92D95
:101B8000A70AD92D21088038A6020318D82D0130C4
:101B9000A7020318D82DA70A21088038A607220813
:101BA000A507031CB62DA60A031DB62DA70AB62D40
:101BB0007A14A80BDC2DE72D0310A40DA50DA60D9E
:101BC000A70D0310FA0DF90DF80DA90D932D291C81
:101BD000EF2D0310F80CF90CFA0CA90CF32DF70BF0
:101BE000F32D8312382EA91B1C2E0310A40DA50D56
:101BF000A60DA70D2308A4020318082E0130A50284
:101C00000318082EA6020318082EA702031C2D2E67
:101C10002208A5020318132E0130A6020318132E62
:101C2000A702031C2D2E21088038A60203181C2EA3
:101C30000130A702031C2D2EFA0A031D2D2EF90ACE
:101C4000031D2D2EF80A031D2D2EF70A031D2A2E23
:101C50008312382EF80CF90CFA0C7C08A800210825
:101C6000A806A81F352EF8173D2EF8133D2E831217
:101C7000F701F801F901FA01831683120800803098
:101C80008316BF000130C0008A11831242218A15D9
:101C9000FF308316BF000130C0008A118312422139
:101CA0008A158316BF01C0018A11831242218A1549
:101CB00091308316BF00831232088316C0008A1148
:101CC000831242218A158316BF010130C0008A1198
:101CD000831242218A15FF308316BF00C0018A118A
:101CE000831242218A1580308316BF00C0018A11F9
:101CF000831242218A158316BF010130C0008A1168
:101D0000831242218A153908B1003808B0008316C1
:101D1000E9018A1183121C218A15781CAE2EAD08A8
:101D2000031D952EAE080319AD2E30083802E800C9
:101D30003908E9003108031C310FE9022E08690255
:101D4000031CAD2E031DA82E68082D020318AD2E0E
:101D50002F14FF30F800F900F52E872E3908B10056
:101D60003808B00013308316E9008A1183121C2151
:101D70008A1578080739031DDC2EAD08031DC32E14
:101D8000AE080319DB2E30083802EA003908EB00F0
:101D90003108031C310FEB022E086B02031CDB2EF3
:101DA000031DD62E6A082D020318DB2E2F14FF30D8
:101DB000F800F900F42EB22E1E308316E8008A11C6
:101DC000831298248A157908E9007808E8000B3016
:101DD0008316BF000130C0008A11831242218A1588
:101DE0006808F8006908F90079088A150A16492D6B
:101DF000831611141118FA2EB430EC008A118312D4
:101E0000FA208A1508308316EC008A118312FA2012
:101E10008A1568088316EC008A118312FA208A1545
:101E20008316EC018A118312FA208A158316111584
:101E30001119182F831208008316111411181E2F60
:101E4000B430EC008A118312FA208A15053083160B
:101E5000EC008A118312FA208A15EC016C086A07DB
:101E6000840083136B18831780080319472F6C08AD
:101E70006A07840083136B1883170008ED0083162C
:101E8000EC008A118312FA208A15EC0A2E2F831691
:101E9000EC018A118312FA208A1583161115111983
:101EA0004F2F831208006B088316A70083126A085D
:101EB0008316A600831269088316A500831268089A
:101EC0008316A4000A16831200200A127A08EF0073
:101ED0007908EE007808ED007708EC006F088316AB
:101EE000D10083126E088316D00083126D0883160A
:101EF000CF0083126C088316CE00D501D401D30124
:101F0000D2018A1183125E218A15031D902FF630AB
:101F1000F7004030F8009730F900CE30FA00E62F95
:101F20006B08FE006A08FD006908FC006808FB00F9
:101F300083147E088316D5007D08D4007C08D30066
:101F40007B08D200DB30D9000F30D8004930D700F1
:101F50007F30D6000A168A11831299250A128A1533
:101F60007A088316A3007908A2007808A1007708F0
:101F7000A0002308A7002208A6002108A500200829
:101F8000A4000A16831200200A127A08F3007908C6
:101F9000F2007808F1007708F0007308FE0072087C
:101FA000FD007108FC007008FB006F088316A30099
:101FB00083126E088316A20083126D088316A10097
:101FC00083126C088316A000831266258A150A16F0
:021FD000DA2D08
:10200000723003178D0000308F000A120313A220D4
:102010000A16353090008E01FF308F0006308E009A
:1020200083160C14C03083128B040130E800523048
:10203000AC00AE01AD012F10E80803193228893039
:102040008316E9000A1283121C210A167808013847
:10205000F40089308316BF007408C0000A1283128E
:1020600042210A1688308316BF00C0010A1283126B
:1020700042210A1680308316BF000130C0000A12C8
:10208000831242210A16FF308316BF000130C000C0
:102090000A12831242210A168316BF01C0010A12D6
:1020A000831242210A1691308316E9000A12831224
:1020B0001C210A167808B2008316BF010130C00047
:1020C0000A12831242210A16FF308316BF00C00194
:1020D0000A12831242210A1680308316BF00C00103
:1020E0000A12831242210A1660308316E9000A128E
:1020F00083121C210A1678081238F4006030831607
:10210000BF007408C0000A12831242210A16FE01A1
:10211000FD01FC017D30FB000A125F220A1601302E
:102120008316BF00FF30C0000A12831242210A1634
:10213000F5016930F400FC016A30FB008030831641
:10214000BF000130C0000A12831242210A16FF307C
:102150008316BF000130C0000A12831242210A1602
:102160008316BF01C0010A12831242210A16FF30F2
:102170008316BF000630C0000A12831242210A16DD
:1021800083308316E9000A1283121C210A1678088C
:1021900004388316A0008330BF002008C0000A1254
:1021A000831242210A16FF308316BF000730C00099
:1021B0000A12831242210A1681308316BF000130B1
:1021C000C0000A12831242210A1680308316BF0013
:1021D0000130C0000A12831242210A16943083167D
:1021E000BF006B30C0000A12831242210A168330EE
:1021F0008316BF00C0010A12831242210A16390851
:10220000B1003808B00083308316E9000A12831247
:102210001C210A16F808031D3829AD08031D1329CF
:10222000AE0803193729300838028316A00083123C
:1022300039088316A10083123108031C310F2129AC
:1022400024298316A10283122E0883162102031863
:102250002B2983123729031D3329200883122D02CD
:102260000318372983160030F800A42983120329A4
:1022700083308316BF000130C0000A12831242214E
:102280000A1692308316E9000A1283121C210A16DC
:102290007808F6007408840083137518831776088D
:1022A0007F3980007B08840083137C188317F70133
:1022B000F61B771477080139800081308316BF0040
:1022C000C0010A12831242210A16FF308316BF0092
:1022D0000630C0000A12831242210A168330831688
:1022E000E9000A1283121C210A1678088316A0003E
:1022F0008330BF002008C0000A12831242210A1650
:10230000FF308316BF000130C0000A128312422141
:102310000A168316BF010130C0000A12831242213F
:102320000A16FF308316BF00C0010A128312422131
:102330000A1680308316BF00C0010A1283124221A0
:102340000A160130F8008316F808031DAA29003088
:10235000F800642DB030F400F6016B30F500063063
:10236000FB0011141118B22983122C088316EC00FB
:102370000A128312FA200A1674088316EC000A1255
:102380008312FA200A167808B70083169114911860
:10239000C72983122C080138FC008316EC000A12AE
:1023A0008312FA200A167B08FB03013C0318EA2972
:1023B0007608FA007508F50A0319F60A84008313F3
:1023C0007A1883170130F7000A120C210A167808D0
:1023D0008000D3297608FA007508F50A0319F60A71
:1023E000840083137A188317F7010A120C210A1646
:1023F00078088000831611151119FC29FF30BF00E1
:102400000130C0000A12831242210A164F3083168F
:10241000BF00C0010A12831242210A164E308316F1
:10242000BF002C30C0000A12831242210A16FF306E
:102430008316BF00C0010A12831242210A16B63069
:102440008316BF00B430C0000A12831242210A165C
:10245000EA0803192D2A0C302E2A0030F100F2016F
:10246000F30173082F3C031C762A71087302031CC6
:102470003D2A69087202031D582A730CF700F70CF5
:10248000F70C1F30F70577086B3E84008313730841
:102490000739F8000130F700F8080319532A031030
:1024A000F70DF80B4F2A7708FF3A00058000742AD1
:1024B000730CF700F70CF70C1F30F70577086B3E2D
:1024C000840083130008F40073080739F8007408C7
:1024D000F700F8080319702A0310F70CF80B6C2AA0
:1024E00077080139031DF20AF30A312AB030F400EB
:1024F000F6016B30F5000630FB008316911491183D
:102500007F2A83122C088316EC000A128312FA2009
:102510000A1674088316EC000A128312FA200A16AF
:102520007B08FB03003A0319AA2A7608FA0075080B
:10253000F50A0319F60A840083137A188317000832
:10254000FC008316EC000A128312FA200A1678089F
:10255000B700902A831611151119AC2AFF30BF005D
:102560000130C0000A12831242210A168316BF01ED
:10257000C0010A12831242210A16FF308316BF00DF
:10258000C0010A12831242210A1609308316BF00C5
:10259000C0010A12831242210A1610308316BF00AE
:1025A000C0010A12831242210A1611308316BF009D
:1025B000C0010A12831242210A1624308316BF007A
:1025C0000130C0000A12831242210A1625308316F8
:1025D000BF00FF30C0000A12831242210A16753074
:1025E0008316BF00C0010A12831242210A16FF306F
:1025F0008316BF000130C0000A12831242210A165E
:102600004E308316BF002C30C0000A1283124221C4
:102610000A1648308316BF00C0010A1283124221F5
:102620000A1630308316BF002030C0000A12831211
:1026300042210A16FF308316BF00C0010A1283121E
:1026400042210A1630308316BF000930C0000A123A
:10265000831242210A1654308316BF00C0010A12A9
:10266000831242210A1631308316BF000430C000A5
:102670000A12831242210A1632308316BF00033039
:10268000C0000A12831242210A1640308316BF008E
:102690008330C0000A12831242210A164630831684
:1026A000BF002530C0000A12831242210A16603092
:1026B0008316BF00C0010A12831242210A16273076
:1026C0008316BF00C0010A12831242210A1650303D
:1026D0008316BF000630C0000A12831242210A1678
:1026E00051308316BF00C0010A12831242210A161C
:1026F00052308316BF009630C0000A128312422166
:102700000A1656308316BF000830C0000A12831222
:1027100042210A1657308316BF003030C0000A121B
:10272000831242210A1661308316BF00C0010A12CB
:10273000831242210A1662308316BF00C0010A12BA
:10274000831242210A1664308316BF00C0010A12A8
:10275000831242210A1665308316BF00C0010A1297
:10276000831242210A1666308316BF00A030C000D3
:102770000A12831242210A16FF308316BF0001306D
:10278000C0000A12831242210A1622308316BF00AB
:102790003230C0000A12831242210A1647308316D3
:1027A000BF001430C0000A12831242210A164930B9
:1027B0008316BF00FF30C0000A12831242210A169E
:1027C0004A308316BF00C0010A12831242210A1642
:1027D000FF308316BF00C0010A12831242210A167D
:1027E0007A308316BF000A30C0000A1283124221D9
:1027F0000A167B308316BF00C0010A1283124221E1
:102800000A1678308316BF002130C0000A128312E6
:1028100042210A16FF308316BF000130C0000A12A1
:10282000831242210A1623308316BF003430C000C1
:102830000A12831242210A1642308316BF00C001D9
:102840000A12831242210A1644308316BF00FF3059
:10285000C0000A12831242210A1645308316BF00B7
:102860002630C0000A12831242210A16463083160F
:10287000BF000530C0000A12831242210A16403000
:102880008316BF00C0000A12831242210A160E30BE
:102890008316BF000630C0000A12831242210A16B6
:1028A00020308316BF001A30C0000A128312422162
:1028B0000A1643308316BF004030C0000A1283124C
:1028C00042210A16FF308316BF00C0010A1283128C
:1028D00042210A1634308316BF000330C0000A12AA
:1028E000831242210A1635308316BF004430C000DF
:1028F0000A12831242210A16FF308316BF000130EC
:10290000C0000A12831242210A1631308316BF001A
:102910000430C0000A12831242210A164B3083167B
:10292000BF000930C0000A12831242210A164C303F
:102930008316BF000530C0000A12831242210A1616
:102940004D308316BF000430C0000A1283124221AA
:102950000A16FF308316BF00C0010A1283124221FB
:102960000A1644308316BF00C0010A1283124221A6
:102970000A1645308316BF002030C0000A128312A9
:1029800042210A1647308316BF000830C0000A12E1
:10299000831242210A1648308316BF002830C00037
:1029A0000A12831242210A1667308316BF00C00143
:1029B0000A12831242210A1670308316BF000430B7
:1029C000C0000A12831242210A1671308316BF001A
:1029D0000130C0000A12831242210A167230831697
:1029E000BF00FE30C0000A12831242210A16763060
:1029F0008316BF00C0010A12831242210A167730E3
:102A00008316BF00C0010A12831242210A16FF304A
:102A10008316BF000130C0000A12831242210A1639
:102A20000D308316BF000130C0000A12831242210C
:102A30000A16FF308316BF00C0010A12831242211A
:102A40000A1680308316BF000130C0000A128312BC
:102A500042210A1601308316BF00F830C0000A1266
:102A6000831242210A16FF308316BF000130C000D6
:102A70000A12831242210A168E308316BF000130DB
:102A8000C0000A12831242210A168316BF010130C8
:102A9000C0000A12831242210A16FF308316BF00BB
:102AA000C0010A12831242210A1680308316BF0029
:102AB000C0010A12831242210A160A128A15A62997
:102AC0000A168A11780883168312E901C830E800D3
:102AD0006908AE006808AD00CD30FE00CC30FD00C6
:102AE0004C30FC007B30FB000A125F220A16E80122
:102AF0001230E9000A128A1513230A168A110130CE
:102B0000E8000E30E9000A128A1513230A168A110A
:102B10008316C0010330BF000D30BE004030BD0041
:102B20000A128A15831200200A168A118A150A16BB
:102B3000C62C8030831C9F2D8316D70683128316E4
:102B4000DC01DD015308DB005708DB0652080319DE
:102B50008D2EDA00F70056080319962EDA020319B3
:102B6000322E031CF02D5708E000E0175808DF0054
:102B70005908DE00DD010310E00CDF0CDE0CDD0C7B
:102B8000DA0BBA2DDB1FC72D5C14AA2E5C105A106D
:102B90005C16D53084008313BF2E5C12DB1BDA2D4C
:102BA0005A1CE52DE00CDF0CDE0CDD0CF70A0319D6
:102BB000A52EE52DE01BE82D0310DD0DDE0DDF0D4C
:102BC000E00DF7030319A52EDA2D5C17522E5C13C6
:102BD0005308DB00DB1FEE2DE0179E2EE0139E2E28
:102BE0005608DA00F7005208DA025308E000E0174E
:102BF0005408DF005508DE00DD010310E00CDF0C97
:102C0000DE0CDD0CDA0BFC2DDB1F092EDC14AA2EEA
:102C1000DC105A10DC16D93084008313BF2EDC126E
:102C2000DB1B1C2E5A1C272EE00CDF0CDE0CDD0CEF
:102C3000F70A0319A52E272EE01B2A2E0310DD0DFF
:102C4000DE0DDF0DE00DF7030319A52E1C2EDC179A
:102C5000522EDC135708DB00DB1F302EE0179E2EB0
:102C6000E0139E2E5708E000E0175808DF005908CF
:102C7000DE00DB1F3F2EE0135C15AA2E5C11DD0188
:102C80005A10D53084008313BF2EDB1B682E5308E7
:102C9000DB005A1C522EE00CDF0CDE0CDD0CF70AB8
:102CA0000319A52EDD1F632EDE0A031D632EDF0A26
:102CB000031D632EE00A031D632EE00CDF0CDE0C07
:102CC000F70A0319A52E5C1BE72DDC1B292E872E86
:102CD0008030E006E01F702EAA2E5708DB007D2E04
:102CE0005308DB00E008031D7D2EDF08031D7D2E49
:102CF000DE08031D7D2EF7019E2EE01B872E03109C
:102D0000DD0DDE0DDF0DE00DF70B7D2EA52EDB1F9B
:102D10008B2EE0179E2EE0139E2E5608F7005708C4
:102D2000E0005808DF005908DE009E2E5208F70028
:102D30005308E0005408DF005508DE006008F80082
:102D40005F08F9005E08FA00DD2EF701F801F901CD
:102D5000FA01DD2EDD01DE09DF09E009DD09DD0A0A
:102D6000031DB82EDE0A031DB82EDF0A0319E00A80
:102D70005C18C62DDC18082E5C193E2E6D2E00083E
:102D8000DE07031CC92EDF0A031DC92EE00A031942
:102D90005A1484030008DF07031CD12EE00A03192C
:102DA0005A1484030008801F803AE00703185A145D
:102DB0005C1ACD2DDC1A0F2E452E831208000B084D
:102DC000E9008B13831603178C170C140000000006
:102DD00083120313E91B8B170318172F03170C0813
:102DE0007F390313E90003170D080313EA000317E3
:102DF0000F080313EB0069080C1EFC2E99006A08EB
:102E000003178D0003136B0803178F0003130B08C0
:102E1000EC008B13831603178C170C1400000000B2
:102E200083120313EC1B8B17E80B172F372F031795
:102E30000C0D0E0D7F390313E90003170D08031362
:102E4000EA0003170F080313EB0069080C1E262F76
:102E500099006A0803178D0003136B0803178F008E
:102E60008D0A03198F0A03100313E80BDF2E0800E5
:102E7000F0010408EF007010831B7014690EF03825
:102E8000EB00EB07E23EEC00323EEE0069080F3942
:102E9000EC07EC07EE07E93EED00ED07ED07680EE5
:102EA0000F39ED07EE07ED0DEE0DEE09EE0D68089A
:102EB0000F39EE07EB0D0730EA000A30EE07ED039D
:102EC000031C5E2FED07EC03031C622FEC07EB03E2
:102ED000031C662FEB07EA03031C6A2F6A30840089
:102EE000831307306F056F1384076E3004020319D4
:102EF0006F170008F700031D852F6F1B852F6F1AB2
:102F00008D2FEF19852F2030882FEF156F1230305D
:102F1000F70777080C1E8A2F9900840A6F1F752FF8
:102F20008A150A165B2E83162808B63CA800FA01FB
:102F30002908AC00A9170310A90CAA0CAB0CFA0CB9
:102F4000F90CF80CF70CA80B9B2FAC1FB22FF7094C
:102F5000F809F909FA09F70A0319F80A0319F90A2D
:082F60000319FA0A83120800AC
:103000008316B301B201B1017F30B0007E30BA0047
:103010008030BB00BC01BD017A30BE002A30BF0049
:10302000AA30C000A330C1007530C200B630C30062
:103030000930C400B430C5006F30C6004F30C7003F
:10304000B630C800AA30C9006930CA008B30CB0046
:10305000F630CC00E830CD002708D1002608D0009B
:103060002508CF002408CE00D501D401D301D20118
:103070000A128A1183125E210A168A15031C45283A
:1030800083162508803AA500831283162708D500E9
:103090002608D4002508D3002408D2008330D900A4
:1030A000F930D8002230D7007E30D6000A128A11BB
:1030B00083129F210A168A157A088316D10079088F
:1030C000D0007808CF007708CE000A128A11831248
:1030D00016220A168A1578088316B4002708D50028
:1030E0002608D4002508D3002408D2008330D90054
:1030F000F930D8002230D7007E30D6000A128A116B
:1031000083129F210A168A157A088316D10079083E
:10311000D0007808CF007708CE00D3013408D20061
:103120000A128A118312BB270A168A158314831682
:103130005108D5005008D4004F08D3004E08D200E3
:103140007A08D9007908D8007808D7007708D6001F
:103150008A11831299258A157A088316B90079088D
:10316000B8007808B7007708B6000330B405B40893
:103170000319BE283408023C031DDE283908D50097
:103180003808D4003708D3003608D200DB30D90025
:103190000F30D8004930D7007F30D6000A128A118C
:1031A00083129F210A168A157A088316AF007908C0
:1031B000AE007808AD007708AC005529340B1B2908
:1031C0008314D501D401D3017F30D2003908D9004E
:1031D0003808D8003708D7003608D6008A1183127D
:1031E00099258A157A088316D1007908D0007808C5
:1031F000CF007708CE005108D5005008D4004F0802
:10320000D3004E08D200DB30D9000F30D80049304F
:10321000D7007F30D6000A128A1183129F210A1626
:103220008A157A088316AF007908AE007808AD00D9
:103230007708AC00552983143908D5003808D40024
:103240003708D3003608D200D901D801D7017F3022
:10325000D6008A11831299258A157A088316D1001F
:103260007908D0007808CF007708CE005108D50043
:103270005008D4004F08D3004E08D200DB30D900EC
:103280000F30D8004930D7007F30D6000A128A119B
:1032900083129F210A168A157A088316AF007908CF
:1032A000AE007808AD007708AC00AB01AA01A90117
:1032B0007F30A8002F08D5002E08D4002D08D30099
:1032C0002C08D2002F08D9002E08D8002D08D700CE
:1032D0002C08D6000A128A1183129F210A168A1519
:1032E0007A088316AF007908AE007808AD00770839
:1032F000AC00B5013508043C031CF2293308D500A5
:103300003208D4003108D3003008D2002F08D90089
:103310002E08D8002D08D7002C08D6000A128A11D2
:1033200083129F210A168A157A088316B30079083A
:10333000B2007808B1007708B000350DF700F70D3E
:10334000FC30F7057708BA3E840083130008CE00EE
:10335000840A0008CF00840A0008D000840A00080C
:10336000D100D5005008D4004F08D3004E08D20039
:103370003308D9003208D8003108D7003008D60009
:103380000A128A1183129F210A168A158316CF0109
:103390000408CE004F10831B4F1483102B08D50058
:1033A0002A08D4002908D3002808D2007A08D900B6
:1033B0007908D8007808D7007708D6008A118312D8
:1033C00099258A1583164E08840083134F18831796
:1033D0007A08AB007908AA007808A9007708A80045
:1033E000B50A7A293408023C0319F829340BFB2961
:1033F0002908803AA9002808F7002908F8002A08B7
:10340000F9002B08FA00831208000408ED006C088C
:10341000EF000319302A6B088316D50083126A085F
:103420008316D400831269088316D30083126808B8
:103430008316D200D901D8012030D7008230D600BF
:103440000A128A1183129F210A168A157A08EB0044
:103450007908EA007808E9007708E800EF0B0B2A02
:103460006B088316AB0083126A088316AA008312C6
:1034700069088316A900831268088316A8008A11B8
:10348000831293278A157A08EB007908EA007808F6
:10349000E9007708E800EB1F5A2AED03ED16E8096A
:1034A000E909EA09EB09E80A0319E90A0319EA0A32
:1034B0000319EB0A3B30F4009A30F300CA30F200F3
:1034C000F1010A30EF006C080319ED0A831468302B
:1034D000840083136B0803179B0003136A08031708
:1034E0009A00031369080317990003136808031768
:1034F000980074089F0073089E0072089D00710870
:103500009C000A128A110313A3230A168A1578084D
:10351000F708031D9E2A6C0A6F0203199E2A6D0884
:103520000319A02A0F396F020319982A0318D42A05
:10353000ED1BD42A6D1BA02A2030CF2A2030ED05A8
:10354000ED1EAF2AED126C08031DED037708ED00A8
:103550002D300C1EA92A99006D08F700ED016C08AA
:103560006F02031DBE2A7708ED002E300C1EB62A0E
:1035700099006D08F7002030ED0500303030ED1E69
:10358000CF2AED126C08031DED037708ED002D30F6
:103590000C1EC82A99006D08F700ED013030F707BE
:1035A00077080C1ED12A99008310740803179B001A
:1035B00073089A0072089900710898009F019E0193
:1035C0009D010A309C000A128A110313A3230A16D4
:1035D0008A157A08F4007908F3007808F200770871
:1035E000F100EF0B662A08000B08E8008B13831626
:1035F00003178C170C140000000083120313E81B40
:103600008B1703170C087F390319542B0313E80099
:1036100003170D080313E90003170F080313EA004B
:1036200068088316A8000A128A118312ED270A1669
:103630008A15690803178D0003136A0803178F00A2
:1036400003130B08EB008B13831603178C170C1452
:103650000000000083120313EB1B8B1703170C0DE4
:103660000E0D7F390319542B0313E80003170D08BF
:103670000313E90003170F080313EA006808831611
:10368000A8000A128A118312ED270A168A15690802
:1036900003178D0003136A0803178F008D0A03199F
:1036A0008F0A0313F42A031703138A150A16112F1E
:1036B00004088316A0007008A2000319862B831249
:1036C0006F088316D50083126E088316D400831208
:1036D0006D088316D30083126C088316D200D901BB
:1036E000D8012030D7008230D6000A128A11831206
:1036F0009F210A168A157A08EF007908EE007808EB
:10370000ED007708EC008316A20B5F2B83126F0885
:103710008316AB0083126E088316AA0083126D080D
:103720008316A90083126C088316A8008A118312DD
:1037300093278A157A08EF007908EE007808ED00E3
:103740007708EC00EF1FB32B8316A003A01683129B
:10375000EC09ED09EE09EF09EC0A0319ED0A03196A
:10376000EE0A0319EF0A3B308316A7009A30A60031
:10377000CA30A500A4010A30A20070080319A00AEB
:1037800083146C308400831383126F0803179B002B
:1037900003136E0803179A0003136D0803179900AB
:1037A00003136C080317980083160313270883126A
:1037B00003179F00831603132608831203179E0026
:1037C000831603132508831203179D008316031322
:1037D0002408831203179C000A128A110313A323DF
:1037E0000A168A157808F708031D0D2C700A83162F
:1037F0002202031DFD2B83120D2C20080319102C0F
:103800000F3922020319062C0318582CA01B582C20
:10381000201B102C20304E2C831220308316A00544
:10382000A01E242CA0127008031DA0037708A0007E
:103830002D30A8000A128A118312ED270A168A1564
:1038400083162008F700A00170082202031D382CFF
:103850007708A0002E30A8000A128A118312ED27E3
:103860000A168A1583162008F7002030A0050030BC
:103870003030A01E4E2CA0127008031DA003770844
:10388000A0002D30A8000A128A118312ED270A1613
:103890008A1583162008F700A0013030F707770853
:1038A000A8000A128A118312ED270A168A158316B8
:1038B00083102708831203179B008316031326081F
:1038C000831203179A008316031325088312031724
:1038D00099008316031324088312031798009F018D
:1038E0009E019D010A309C000A128A110313A32332
:1038F0000A168A157A088316A7007908A6007808A0
:10390000A5007708A400A20BC02B831208000308AF
:103910001F398300713083168F0090010F08031741
:1039200087110C3003139900A23098009030831255
:103930009800FF30AB00AB152B088316870083126D
:103940002B162B0883168700133093002830831220
:1039500094008316941714138312BB01BA01B901A2
:10396000B801BD01BC01831603170908C0398900DD
:1039700003131F129F120030031788008312870160
:103980008801890183138A11031300288A1583167D
:1039900003170908C039890003131F129F12013051
:1039A00003178800831203131F179F1783169F178F
:1039B00083121F147E3003178D0000308F000A120F
:1039C0008A110313A2200A168A150030F8001F0876
:1039D000C33978049F003230E9000A128A11A72700
:1039E0000A168A159F149F18F32C83161E0883123B
:1039F000BE001E08BF008A303E02F7003F08FA00F2
:103A00000130031C0230FA0277088316D2007A08CC
:103A1000D3000A128A118312BB270A168A1583164D
:103A2000D501D4013430D3008530D2007A08D900D2
:103A30007908D8007808D7007708D6000A128A11CA
:103A400083129F210A168A157A08EB007908EA008A
:103A50007808E9007708E8007A08FE007908FD0098
:103A60007808FC007708FB008316A301A201093047
:103A7000A1008630A0000A12831266250A167A0871
:103A8000C3007908C2007808C1007708C0000A1294
:103A90003F2E0A167908E9007808E80079088316AD
:103AA000D300831278088316D2000A128A11831277
:103AB000BB270A168A157A08FE007908FD007808E7
:103AC000FC007708FB008316A301A2012030A100AF
:103AD0008230A0000A12831266250A167A08C700EF
:103AE0007908C6007808C5007708C40083168617D1
:103AF0008312861BAB2D4708D3004608D200450829
:103B0000D1004408D0000A128A11DA270A168A1551
:103B10000130E8000A12F8260A16F8010C30F70006
:103B200054308400831378080A128A1151200A162F
:103B30008A158000F80A840AF70B932DEB015430A4
:103B4000EA000A121C270A166430E9000A128A11D8
:103B5000A7270A168A1543088316D5008312420840
:103B60008316D400831241088316D30083124008C1
:103B70008316D2003930D900FA30D8000E30D70081
:103B80007930D6000A128A1183129F210A168A15EB
:103B90007A08CF007908CE007808CD007708CC00ED
:103BA0004F08EB004E08EA004D08E9004C08E80019
:103BB0000A12532F0A167A08EB007908EA007808EF
:103BC000E9007708E8007A088316D500831279089F
:103BD0008316D400831278088316D30083127708E3
:103BE0008316D200831247088316D9008312460831
:103BF0008316D800831245088316D7008312440821
:103C00008316D6000A128A1183129F210A168A157A
:103C10007A08EB007908EA007808E9007708E800FC
:103C2000ED010408EC006D10831B6D1483107A08FD
:103C30008316D500831279088316D400831278087E
:103C40008316D300831277088316D2008312530899
:103C50008316D900831252088316D80083125108A4
:103C60008316D700831250088316D6008A11831258
:103C700099258A156C08840083136D1883177A08B8
:103C8000CB007908CA007808C9007708C8008430DA
:103C900003178D0000308F00031008300313E80075
:103CA0008A11DF268A15103084003F08E9003E089B
:103CB000E8008A11382F8A15893003178D000030EB
:103CC0008F00031409300313E8008A11DF268A15D8
:103CD000893084004308EB004208EA004108E9000B
:103CE0004008E8000230EC000522903003178D00F8
:103CF00000308F00031007300313E8008A11DF261D
:103D00008A15893084004708EB004608EA00450818
:103D1000E9004408E8000230EC0005229530031762
:103D20008D0000308F0003140A300313E8008A115D
:103D3000DF268A15893084004B08EB004A08EA0028
:103D40004908E9004808E8000230EC0005229B30F1
:103D500003178D0000308F00031405300313E800B3
:103D60008A11DF268A156430E9000A128A11A72712
:103D70000A168A150A128A11DA270A168A150130DC
:103D8000E8000A12F8260A164430E2006530E30023
:103D90006730E4003A30E500E601EB016230EA000A
:103DA0000A121C270A168316D101D0013430CF0025
:103DB0008530CE00831243088316D5008312420853
:103DC0008316D400831241088316D300831240085F
:103DD0008316D2000A128A1183125E210A168A15EE
:103DE0000318F42E031D002F6108BD006008BC00FD
:103DF0009F3003178D0000308F000313F42A112F1A
:103E00006108BD006008BC00893084004308EF00F1
:103E10004208EE004108ED004008EC000130F000DF
:103E200058230530E8000A12F8260A166108EB004C
:103E30006008EA000A121C270A160930E8000A1274
:103E4000F8260A164430E2006930E3007330E400DB
:103E50003A30E500E601EB016230EA000A121C2765
:103E60000A164708FE004608FD004508FC00440805
:103E7000FB008316A301A2014830A1008530A000F9
:103E80000A12831266250A167A08EB007908EA00FE
:103E90007808E9007708E8006108BD006008BC0008
:103EA000893084007A08EF007908EE007808ED0088
:103EB0007708EC000130F00058236108EB0060083F
:103EC000EA000A121C270A161130E8000A12F82626
:103ED0000A167430E2006130E3006C30E400E50063
:103EE0003A30E600E701EB016230EA000A121C27D3
:103EF0000A166108BD006008BC00893084004B08C8
:103F0000EF004A08EE004908ED004808EC000130D7
:103F1000F00058236108EB006008EA000A121C2731
:103F20000A160230E8009630E9000A128A11A72723
:0C3F30000A168A15E80B932FF22C630090
:04400E00C42FFF3F7D
:00000001FF
;PIC16F886
;CRC=F807  CREATED="29-Mar-17 19:37"
