:100000000A308A00B02A00000A108A100A118207FA
:10001000433461346C34693462347234613474341E
:100020006534643421340034D3306D38EC34EE332D
:10003000BA060A00D332EE396F393D102526F50491
:10004000C4326739E5323D10251732330922E939C8
:10005000F41EA0122E196610E3362010F4306C3610
:10006000BD126610E3360D050000AD16AD1600009A
:100070000B08CD008B13831603178C170C1400008C
:10008000000083120313CD1B8B1703170C087F3955
:1000900003198E280313CD0003170D080313CE0098
:1000A00003170F080313CF004D080C1E55289900A5
:1000B0004E0803178D0003134F0803178F00031317
:1000C0000B08D0008B13831603178C170C14000039
:1000D000000083120313D01B8B1703170C0D0E0D9A
:1000E0007F3903198E280313CD0003170D0803135E
:1000F000CE0003170F080313CF004D080C1E7E28F7
:1001000099004E0803178D0003134F0803178F0043
:100110008D0A03198F0A03133828031703138A154E
:100120000A12062B4E308400831300080319A528F9
:100130000230F800F701F70B9B28F80B9A2897304C
:10014000F700F70BA128800B982808008E30F700E5
:1001500083163908F8003808F900FA01F808031D79
:10016000BB287908F800F9010830F702F808031DE8
:10017000BB28F701C3280310F81BC228F90DF80D9E
:10018000F703BB28F81383120800831638080319F5
:100190003629C0003C0803193629C0070318D728A0
:1001A0007F30C002031C362903193629DB28813031
:1001B000C007031836294008F700F801F901FA01D1
:1001C0003908C400C4173A08C3003B08C2001830FD
:1001D000C000C101421C04293F08FA07031CF6288D
:1001E000F90A031DF628F80A0319C1173E08F90792
:1001F000031CFD28F80A0319C1173D08BA00BA17F5
:100200003A08F8070318C117C10DF80CF90CFA0CDD
:10021000C40CC30CC20C0310C00BE9280130F70753
:1002200003183629F81B1B29C40DFA0DF90DF80D1A
:10023000F70303193629C41F2C29FA0A031D2C2998
:10024000F90A031D2C29F80A031D2C29F80CF90CB6
:10025000FA0CF70A031936293908C1003D08C1060E
:10026000C11F3429F8173A29F8133A29F701F80180
:10027000F901FA018312080059080319012AE5005F
:100280005D080319012AE502031C4B297F30E507AD
:100290000318012A51298130E502031C012A0319A0
:1002A000012A6508F700F801F901FA01E4015A088A
:1002B000E300E3175B08E2005C08E1001930E500A9
:1002C0006008E102031874290130E202031874295E
:1002D000E30203187429E40203187429E40AE30A08
:1002E000E20A6008E107A6295F08E20203188F29E5
:1002F0000130E30203188F29E40203188F29E40A6E
:10030000E30A5F08E2076008E107031CA629E20A86
:10031000031DA629E30A031DA629E40AA6295E08EF
:100320008038E3020318A5290130E4020318A52947
:10033000E40A5E088038E3075F08E207031C8329AC
:10034000E30A031D8329E40A83297A14E50BA9290A
:10035000B4290310E10DE20DE30DE40D0310FA0DD5
:10036000F90DF80DE60D6029661CBC290310F80C88
:10037000F90CFA0CE60CBF29F7030319012AE61B56
:10038000E8290310E10DE20DE30DE40D6008E10240
:100390000318D4290130E2020318D429E302031818
:1003A000D429E402031CF7295F08E2020318DF29BD
:1003B0000130E3020318DF29E402031CF7295E0879
:1003C0008038E3020318E8290130E402031CF7290E
:1003D000FA0A031DF729F90A031DF729F80A031D74
:1003E000F729F70A0319012AF80CF90CFA0C5A0834
:1003F000E5005E08E506E51FFF29F817052AF81352
:10040000052AF701F801F901FA0108002010200877
:1004100083168700831207140D30F700F70B0E2A9E
:10042000201020088316870083120710A0142008CC
:10043000831687008312871C162A8E018F018E0176
:10044000A0142008831687008312871C462A0F08F1
:10045000FA000E08F7000F087A02031D272A770812
:10046000D1007A08D2005208FE3C0318452AFF3A10
:10047000031D3E2A5108FD3C0318452A7F30F70032
:100480008030F800F901FA01C42A202A0F08FA0086
:100490000E08F7000F087A02031D462A7708D100DC
:1004A0007A08D200D10DD20DD10DD20DFC30D1057C
:1004B00052088316B900831251088316B8008312BC
:1004C000A6207A088316BB007908BA007808B9001C
:1004D0007708B8006F30BF001230BE000330BD0097
:1004E0007430BC008312C5207A08D0007908CF0090
:1004F0007808CE007708CD0050088316BB00831221
:100500004F088316BA0083124E088316B90083126F
:100510004D088316B800E130BF000B30BE00333009
:10052000BD007D30BC008312C5207A08D400790854
:10053000D3007808D2007708D1007A088316BB0070
:10054000831279088316BA00831278088316B900DB
:10055000831277088316B800BF01BE014830BD0082
:100560008530BC008312C5207A08D0007908CF00FE
:100570007808CE007708CD004D08F7004E08F80047
:100580004F08F9005008FA008A150A12632B9413D9
:100590008C11530893000230941BD52A8C1DCE2A4F
:1005A00000308316111B01308312F80008008316F7
:1005B00011141118D92AB4308312D300C72206307F
:1005C000D300C722831611151119E42A83120800DB
:1005D000831611141118EA2AB4308312D300C722EB
:1005E0000830D300C7224D08D300C722D301C72249
:1005F000831611151119FA2A831208008316111493
:100600001118002BB4308312D300C7220530D30059
:10061000C722D10151084F07840083135018831754
:10062000800803191F2B51084F07840083135018AB
:1006300083170008D200D300C722D10A0A2BD301A6
:10064000C722831611151119232B83120800831654
:100650003508BC003908BC06BC1F332B031103103E
:10066000B51B0314662B3508BC003808BD003408E0
:10067000BD020319412BBC1F662B0308013A8300FE
:10068000662B3908BD003508BD0203194D2BBC1F70
:10069000662B0308013A8300662B3A08BD00360832
:1006A000BD020319592BBC1F662B0308013A8300B6
:1006B000662B3B08BD003708BD020319652BBC1F24
:1006C000662B0308013A8300662B0310831208008F
:1006D0008030831C6E2B8316BD0683128316C201E5
:1006E000C3013908C1003D08C106380803195C2C54
:1006F000C000F7003C080319652CC0020319012C47
:10070000031CBF2B3D08C600C6173E08C5003F08A6
:10071000C400C3010310C60CC50CC40CC30CC00B31
:10072000892BC11F962B4214792C4210401042167F
:10073000BB30840083138E2C4212C11BA92B401C9A
:10074000B42BC60CC50CC40CC30CF70A0319742CCB
:10075000B42BC61BB72B0310C30DC40DC50DC60D9E
:10076000F7030319742CA92B4217212C42133908C3
:10077000C100C11FBD2BC6176D2CC6136D2C3C08C4
:10078000C000F7003808C0023908C600C6173A088A
:10079000C5003B08C400C3010310C60CC50CC40C43
:1007A000C30CC00BCB2BC11FD82BC214792CC21089
:1007B0004010C216BF30840083138E2CC212C11B9E
:1007C000EB2B401CF62BC60CC50CC40CC30CF70A53
:1007D0000319742CF62BC61BF92B0310C30DC40D83
:1007E000C50DC60DF7030319742CEB2BC217212C72
:1007F000C2133D08C100C11FFF2BC6176D2CC613C5
:100800006D2C3D08C600C6173E08C5003F08C40051
:10081000C11F0E2CC6134215792C4211C301401082
:10082000BB30840083138E2CC11B372C3908C100C8
:10083000401C212CC60CC50CC40CC30CF70A0319B0
:10084000742CC31F322CC40A031D322CC50A031D8D
:10085000322CC60A031D322CC60CC50CC40CF70A78
:100860000319742C421BB62BC21BF82B562C80305C
:10087000C606C61F3F2C792C3D08C1004C2C3908F8
:10088000C100C608031D4C2CC508031D4C2CC40810
:10089000031D4C2CF7016D2CC61B562C0310C30DE9
:1008A000C40DC50DC60DF70B4C2C742CC11F5A2C52
:1008B000C6176D2CC6136D2C3C08F7003D08C6000A
:1008C0003E08C5003F08C4006D2C3808F700390801
:1008D000C6003A08C5003B08C4004608F8004508B1
:1008E000F9004408FA00AC2CF701F801F901FA010B
:1008F000AC2CC301C409C509C609C309C30A031D39
:10090000872CC40A031D872CC50A0319C60A42187E
:10091000952BC218D72B42190D2C3C2C0008C4076C
:10092000031C982CC50A031D982CC60A03194014F1
:1009300084030008C507031CA02CC60A0319401431
:1009400084030008801F803AC60703184014421A27
:100950009C2BC21ADE2B142C83120800F001EF012D
:10096000EE017F30ED007E308316A0008030A100C4
:10097000A201A3017A30A4002A30A500AA30A60063
:10098000A330A7007530A800B630A9000930AA002E
:10099000B430AB006F30AC004F30AD00B630AE00BD
:1009A000AA30AF006930B0008B30B100F630B20031
:1009B000E830B300831264088316B700831263081B
:1009C0008316B600831262088316B500831261088D
:1009D0008316B400BB01BA01B901B8018312272301
:1009E000031CF52C6208803AE20064088316BB0001
:1009F000831263088316BA00831262088316B90053
:100A0000831261088316B8008330BF00F930BE003E
:100A10002230BD007E30BC008312C5207A088316C8
:100A2000B7007908B6007808B5007708B4008E30B2
:100A3000F7003408F7023508F9003608F800F9170E
:100A4000F70803192E2D0310F908031D2A2DF808A5
:100A500003192E2DF90CF80CF70B232DB51F352D8E
:100A6000F809F909F80A0319F90A7808F10083125C
:100A700064088316BB00831263088316BA008312CE
:100A800062088316B900831261088316B8008330A8
:100A9000BF00F930BE002230BD007E30BC008312A2
:100AA000C5207A08FE007908FD007808FC00770868
:100AB000FB008316B9017108B8008312A6208314C5
:100AC0007E088316BB007D08BA007C08B9007B084D
:100AD000B8007A08BF007908BE007808BD00770822
:100AE000BC00831268237A08F6007908F5007808BC
:100AF000F4007708F3000330F105F1080319842DA1
:100B00007108023C031DA02D76088316BB007508F2
:100B1000BA007408B9007308B800DB30BF000F30AA
:100B2000BE004930BD007F30BC008312C5207A086A
:100B3000EC007908EB007808EA007708E9000B2E52
:100B4000710BD72D83148316BB01BA01B9017F3015
:100B5000B8007608BF007508BE007408BD007308B1
:100B6000BC00831268237A08FE007908FD0078082B
:100B7000FC007708FB007E088316BB007D08BA00E6
:100B80007C08B9007B08B800DB30BF000F30BE0026
:100B90004930BD007F30BC008312C5207A08EC00CC
:100BA0007908EB007808EA007708E9000B2E831437
:100BB00076088316BB007508BA007408B90073087C
:100BC000B800BF01BE01BD017F30BC0083126823A5
:100BD0007A08FE007908FD007808FC007708FB0021
:100BE0007A088316BB007908BA007808B90077083C
:100BF000B800DB30BF000F30BE004930BD007F3091
:100C0000BC008312C5207A08EC007908EB00780854
:100C1000EA007708E900E801E701E6017F30E50036
:100C20006C088316BB0083126B088316BA0083120C
:100C30006A088316B900831269088316B800831204
:100C40006C088316BF0083126B088316BE008312E4
:100C50006A088316BD00831269088316BC008312DC
:100C6000C5207A08EC007908EB007808EA007708DC
:100C7000E900F2017208043C031CC22E70088316BE
:100C8000BB0083126F088316BA0083126E088316A6
:100C9000B90083126D088316B80083126C0883169E
:100CA000BF0083126B088316BE0083126A08831686
:100CB000BD00831269088316BC008312C5207A0820
:100CC000F0007908EF007808EE007708ED00720D6B
:100CD000F700F70DFC30F7057708A03E840083137A
:100CE0000008FB00840A0008FC00840A0008FD00DC
:100CF000840A0008FE008316BB007D08BA007C0849
:100D0000B9007B08B8007008BF0083126F08831613
:100D1000BE0083126E088316BD0083126D08831611
:100D2000BC008312C520FC010408FB007C10831B5F
:100D30007C14831068088316BB008312670883162F
:100D4000BA00831266088316B900831265088316F9
:100D5000B8007A08BF007908BE007808BD0077089F
:100D6000BC00831268237B08840083137C188317DC
:100D70007A08E8007908E7007808E6007708E500D7
:100D8000F20A3A2E7108023C0319C82E710BCB2EC1
:100D90006608803AE6006508F7006608F80067080C
:100DA000F9006808FA0008005008E4004F08E30062
:100DB0004E08E2004D08E100AE247A08D40079081C
:100DC000D3007808D2007708D10054088316B70002
:100DD000831253088316B600831252088316B50097
:100DE000831251088316B400BB01BA01B901B801DE
:100DF00083122723031D052FF630F7004030F8003B
:100E00009730F900CE30FA00512F5008DC004F081F
:100E1000DB004E08DA004D08D90083145C08831605
:100E2000BB0083125B088316BA0083125A0883162C
:100E3000B900831259088316B800DB30BF000F30A9
:100E4000BE004930BD007F30BC00831268237A08A1
:100E5000E0007908DF007808DE007708DD007A0816
:100E6000E4007908E3007808E2007708E100AE24A6
:100E70007A08D8007908D7007808D6007708D50016
:100E80005808DC005708DB005608DA005508D9007E
:100E90005408E0005308DF005208DE005108DD006E
:100EA0003C218A150A12C82B0B08CE008B1383161F
:100EB00003178C170C140000000083120313CE1BC1
:100EC0008B1703188C2F03170C087F390313CE00E0
:100ED00003170D080313CF0003170F080313D000E7
:100EE0004E080C1E712F99004F0803178D00031335
:100EF000500803178F0003130B08D1008B138316C0
:100F000003178C170C140000000083120313D11B6D
:100F10008B17CD0B8C2FAC2F03170C0D0E0D7F39BB
:100F20000313CE0003170D080313CF0003170F0898
:100F30000313D0004E080C1E9B2F99004F08031777
:100F40008D000313500803178F008D0A03198F0AB1
:100F500003100313CD0B542F08005E08B63CDE00CF
:100F6000FA015F08E200DF170310DF0CE00CE10C70
:100F7000FA0CF90CF80CF70CDE0BB42FE21FCB2F98
:100F8000F709F809F909FA09F70A0319F80A031920
:100F9000F90A0319FA0A0800330884008313341885
:100FA00083175E088000840A8001B30A0319B40A1B
:020FB000080037
:10100000D5010408D4005510831B55144E0EF0383A
:10101000D000D007E23ED100323ED3004E080F3957
:10102000D107D107D307E93ED200D207D2074D0E30
:101030000F39D207D307D20DD30DD309D30D4D08E5
:101040000F39D307D00D0730CF000A30D307D203B2
:10105000031C2628D207D103031C2A28D107D0035A
:10106000031C2E28D007CF03031C32284F308400E6
:1010700083130730540554138407533004020319B3
:1010800054170008F700031D4D28541B4D28541A0F
:101090005528D4194D2820305028D41554123030FA
:1010A000F70777080C1E52289900840A541F3D2820
:1010B0008A150A12462C8318602866308400831330
:1010C000F701F801F901FA01E601E701E801E90198
:1010D000650864046304620403199E282030EA0052
:1010E0000310DE0DDF0DE00DE10DE60DE70DE80D5F
:1010F000E90D65086902031D872864086802031D5D
:10110000872863086702031D872862086602031C9C
:1011100098286208E6026308031C630FE70264086C
:10112000031C640FE8026508031C650FE902031441
:10113000F70DF80DF90DFA0DEA0B7028660880001E
:10114000840A67088000840A68088000840A6908A5
:10115000800008000408D2005108D4000319D328E5
:1011600050088316BB0083124F088316BA008312FF
:101170004E088316B90083124D088316B800BF01CC
:10118000BE012030BD008230BC008A118312C52010
:101190008A157A08D0007908CF007808CE00770841
:1011A000CD00D40BB0285008E1004F08E0004E08F5
:1011B000DF004D08DE008A11AD278A157A08D000BD
:1011C0007908CF007808CE007708CD00D01FF52829
:1011D000D203D216CD09CE09CF09D009CD0A031901
:1011E000CE0A0319CF0A0319D00A3B30D9009A302E
:1011F000D800CA30D700D6010A30D40051080319EC
:10120000D20A83144D30840083135008E1004F0844
:10121000E0004E08DF004D08DE005908E5005808E0
:10122000E4005708E3005608E2005B207808F7085E
:10123000031D2D29510A540203192D29520803199F
:101240002F290F3954020319272903186329D21BA8
:101250006329521B2F2920305E292030D205D21E4F
:101260003E29D2125108031DD2037708D2002D3037
:101270000C1E382999005208F700D2015108540277
:10128000031D4D297708D2002E300C1E45299900E8
:101290005208F7002030D20500303030D21E5E29CF
:1012A000D2125108031DD2037708D2002D300C1E34
:1012B000572999005208F700D2013030F707770814
:1012C0000C1E6029990083105908E1005808E000BD
:1012D0005708DF005608DE00E501E401E3010A30AB
:1012E000E2005B207A08D9007908D8007808D70096
:1012F0007708D600D40B012908000B08CD008B130A
:10130000831603178C170C140000000083120313BC
:10131000CD1B8B1703170C087F390319D52903132D
:10132000CD0003170D080313CE0003170F08031396
:10133000CF004D08DE008A11CC278A154E0803170E
:101340008D0003134F0803178F0003130B08D00001
:101350008B13831603178C170C14000000008312E4
:101360000313D01B8B1703170C0D0E0D7F390319B8
:10137000D5290313CD0003170D080313CE0003175F
:101380000F080313CF004D08DE008A11CC278A1501
:101390004E0803178D0003134F0803178F008D0AA3
:1013A00003198F0A03137D29031703138A150A12E1
:1013B000F52C0408D6005508D8000319022A540851
:1013C0008316BB00831253088316BA008312520897
:1013D0008316B900831251088316B800BF01BE01FD
:1013E0002030BD008230BC008A118312C5208A15CE
:1013F0007A08D4007908D3007808D2007708D100A1
:10140000D80BDF295408E1005308E0005208DF0040
:101410005108DE008A11AD278A157A08D4007908B0
:10142000D3007808D2007708D100D41F242AD6032D
:10143000D616D109D209D309D409D10A0319D20A7F
:101440000319D30A0319D40A3B30DD009A30DC00BB
:10145000CA30DB00DA010A30D80055080319D60A71
:1014600083145130840083135408E1005308E000D2
:101470005208DF005108DE005D08E5005C08E4006A
:101480005B08E3005A08E2005B207808F708031DB8
:101490005C2A550A580203195C2A560803195E2A69
:1014A0000F3958020319562A0318962AD61B962A72
:1014B000561B5E2A2030902A2030D605D61E6E2A72
:1014C000D6125508031DD6037708D6002D30DE004E
:1014D0008A11CC278A155608F700D60155085802FC
:1014E000031D7E2A7708D6002E30DE008A11CC2715
:1014F0008A155608F7002030D60500303030D61E49
:10150000902AD6125508031DD6037708D6002D3031
:10151000DE008A11CC278A155608F700D601303034
:10152000F7077708DE008A11CC278A1583105D083B
:10153000E1005C08E0005B08DF005A08DE00E5011E
:10154000E401E3010A30E2005B207A08DD0079085B
:10155000DC007808DB007708DA00D80B302A0800B6
:1015600003081F398300713083168F0090010F0824
:10157000031787110C3003139900A23098009030A4
:1015800083129800FF30A000A01520088316870062
:10159000831220162008831687001330930028300A
:1015A000831294008316941714138312B401B301A9
:1015B000831603170908C039890003131F129F12ED
:1015C0000030031788008312870188018901831383
:1015D000353003139000831603170908C0398900BA
:1015E00003131F129F120130031788008312031385
:1015F0001F179F1783169F1783121F14143003178A
:101600008D0000308F008A11031338288A150030AE
:10161000F8001F08C33978049F003230CE008A11C9
:1016200092208A159F149F18132B83161E0883126D
:10163000A1001E08A2008A302102F7002208FA0049
:101640000130031C0230FA0277088316B8007A08CA
:10165000B9008A118312A6208A158316BB01BA012C
:101660003430B9008530B8007A08BF007908BE0070
:101670007808BD007708BC008A118312C5208A153E
:101680007A08D0007908CF007808CE007708CD001E
:101690007A08DC007908DB007808DA007708D900DE
:1016A000E001DF010930DE008630DD008A113C21D7
:1016B0008A157A08A6007908A5007808A40077089A
:1016C000A3008A11062A8A157A08AA007908A900B7
:1016D0007808A8007708A700831686178312861B50
:1016E0009B2B2A08B8002908B7002808B60027084D
:1016F000B5008A11D7228A150130CD008A11E8225F
:101700008A15F8010C30F70039308400831378080B
:101710008A1104208A158000F80A840AF70B872BA7
:10172000D0013930CF008A11FE228A156430CE00F4
:101730008A1192208A1526088316BB008312250879
:101740008316BA00831224088316B9008312230873
:101750008316B8003930BF00FA30BE000E30BD002D
:101760007930BC008A118312C5208A157A08B2002C
:101770007908B1007808B0007708AF003208D000CF
:101780003108CF003008CE002F08CD008A11D42EAA
:101790008A157A08D0007908CF007808CE0077083B
:1017A000CD007A088316BB00831279088316BA002D
:1017B000831278088316B900831277088316B8005D
:1017C00083122A088316BF00831229088316BE00DD
:1017D000831228088316BD00831227088316BC00D5
:1017E0008A118312C5208A157A08D0007908CF00A3
:1017F0007808CE007708CD00D2010408D10052103D
:10180000831B521483107A088316BB008312790855
:101810008316BA00831278088316B90083127708FA
:101820008316B800831238088316BF008312370866
:101830008316BE00831236088316BD008312350856
:101840008316BC008A11831268238A15510884000C
:101850008313521883177A08AE007908AD00780810
:10186000AC007708AB001A3003178D0000308F00F2
:10187000031008300313CD008A1154278A15103045
:1018800084002208CE002108CD0000281F30031755
:101890008D0000308F00031409300313CD008A112E
:1018A00054278A15893084002608D0002508CF00E7
:1018B0002408CE002308CD000230D100AA20263013
:1018C00003178D0000308F00031007300313CD0085
:1018D0008A1154278A15893084002A08D0002908E3
:1018E000CF002808CE002708CD000230D100AA2062
:1018F0002B3003178D0000308F0003140A300313C0
:10190000CD008A1154278A15893084002E08D00012
:101910002D08CF002C08CE002B08CD000230D100BE
:10192000AA20313003178D0000308F0003140530DA
:101930000313CD008A1154278A156430CE008A1112
:1019400092208A158A11D7228A150130CD008A117A
:10195000E8228A154430C7006530C8006730C900E6
:101960003A30CA00CB01D0014730CF008A11FE22A5
:101970008A158316B701B6013430B5008530B4003E
:10198000831226088316BB00831225088316BA002B
:10199000831224088316B900831223088316B80023
:1019A0008A11831227238A150318D82C031DE42CCF
:1019B0004608B4004508B300353003178D000030E9
:1019C0008F0003137D29F52C4608B4004508B300A9
:1019D000893084002608D4002508D3002408D200CA
:1019E0002308D1000130D500D9210530CD008A115E
:1019F000E8228A154608D0004508CF008A11FE2249
:101A00008A150930CD008A11E8228A154430C700B2
:101A10006930C8007330C9003A30CA00CB01D00128
:101A20004730CF008A11FE228A152A08DC002908D7
:101A3000DB002808DA002708D900E001DF01483080
:101A4000DE008530DD008A113C218A157A08D0003D
:101A50007908CF007808CE007708CD004608B4009A
:101A60004508B300893084007A08D4007908D3008F
:101A70007808D2007708D1000130D500D921460876
:101A8000D0004508CF008A11FE228A151130CD0002
:101A90008A11E8228A157430C7006130C8006C30A2
:101AA000C900CA003A30CB00CC01D0014730CF008A
:101AB0008A11FE228A154608B4004508B300893011
:101AC00084002E08D4002D08D3002C08D2002B0847
:101AD000D1000130D500D9214608D0004508CF00FB
:101AE0008A11FE228A150230CD009630CE008A116E
:0C1AF00092208A15CD0B752D122B63007F
:04400E00C42FFF3F7D
:00000001FF
;PIC16F886
;CRC=9123  CREATED="29-Mar-17 00:31"
