:100000000A308A00532A00000A108A100A11820757
:10001000433461346C34693462347234613474341E
:100020006534643421340034E1396410D81E253637
:100030007510A0296537F337F21EA012CC3A0922B9
:10004000E533F232E51EA0122E19E604C434733AE9
:100050003D1025173233A0316D10203A6136EC1E69
:100060002533A031ED060A00AD16AD160000AD1621
:10007000AD160001503084008313000803194D2889
:100080000230F800F701F70B4328F80B42289730AD
:10009000F700F70B4928800B402808008E30F70046
:1000A00083163908F8003808F900FA01F808031D2A
:1000B00063287908F800F9010830F702F808031DF1
:1000C0006328F7016B280310F81B6A28F90DF80D57
:1000D000F7036328F81383120800831638080319FE
:1000E000DE28C0003C080319DE28C00703187F285B
:1000F0007F30C002031CDE280319DE2883288130EC
:10010000C0070318DE284008F700F801F901FA01DA
:100110003908C400C4173A08C3003B08C2001830AD
:10012000C000C101421CAC283F08FA07031C9E28EE
:10013000F90A031D9E28F80A0319C1173E08F9079A
:10014000031CA528F80A0319C1173D08BA00BA17FD
:100150003A08F8070318C117C10DF80CF90CFA0C8E
:10016000C40CC30CC20C0310C00B91280130F7075C
:100170000318DE28F81BC328C40DFA0DF90DF80D7D
:10018000F7030319DE28C41FD428FA0A031DD42854
:10019000F90A031DD428F80A031DD428F80CF90C19
:1001A000FA0CF70A0319DE283908C1003D08C10618
:1001B000C11FDC28F817E228F813E228F701F8013C
:1001C000F901FA01831208005B080319A929E70065
:1001D0005F080319A929E702031CF3287F30E7070A
:1001E0000318A929F9288130E702031CA92903195A
:1001F000A9296708F700F801F901FA01E6015C088E
:10020000E500E5175D08E4005E08E3001930E7004B
:100210006208E30203181C290130E40203181C29B8
:10022000E50203181C29E60203181C29E60AE50A60
:10023000E40A6208E3074E296108E402031837293B
:100240000130E50203183729E60203183729E60AC8
:10025000E50A6108E4076208E307031C4E29E40A83
:10026000031D4E29E50A031D4E29E60A4E296008A2
:100270008038E50203184D290130E60203184D29A4
:10028000E60A60088038E5076108E407031C2B29AB
:10029000E50A031D2B29E60A2B297A14E70B5129BD
:1002A0005C290310E30DE40DE50DE60D0310FA0DD6
:1002B000F90DF80DE80D0829681C64290310F80CE5
:1002C000F90CFA0CE80C6729F7030319A929E81BB4
:1002D00090290310E30DE40DE50DE60D6208E3023D
:1002E00003187C290130E40203187C29E502031875
:1002F0007C29E602031C9F296108E4020318872970
:100300000130E50203188729E602031C9F296008D3
:100310008038E502031890290130E602031C9F296A
:10032000FA0A031D9F29F90A031D9F29F80A031DD4
:100330009F29F70A0319A929F80CF90CFA0C5C0893
:10034000E7006008E706E71FA729F817AD29F813AB
:10035000AD29F701F801F901FA0108002010200881
:1003600083168700831207140630F700F70BB629AF
:100370000000201020088316870083120710A014A5
:100380002008831687008312871CBF298E018F01E6
:100390008E01A01420088316870083128718C929AC
:1003A0000F08FA000E08F7000F087A02031DD02983
:1003B0007708D3007A08D400D30DD40DD30DD40D13
:1003C000FC30D30554088316B900831253088316F2
:1003D000B80083124E207A088316BB007908BA0051
:1003E0007808B9007708B8006F30BF001230BE003F
:1003F0000330BD007430BC0083126D207A08D20037
:100400007908D1007808D0007708CF005208831609
:10041000BB00831251088316BA008312500883165A
:10042000B90083124F088316B800E130BF000B30CB
:10043000BE003330BD007D30BC0083126D207A08D1
:10044000D6007908D5007808D4007708D3007A0858
:100450008316BB00831279088316BA0083127808CA
:100460008316B900831277088316B800BF01BE0156
:100470004830BD008530BC0083126D207A08D20060
:100480007908D1007808D0007708CF004F08F7002E
:100490005008F8005108F9005208FA008A150A12AB
:1004A000FE2A94138C11550893000230941B5F2A86
:1004B0008C1D582A00308316111B01308312F8005E
:1004C0000800831611141118632AB4308312D50062
:1004D00051220630D50051228316111511196E2AAA
:1004E00083120800831611141118742AB430831271
:1004F000D50051220830D50051224F08D500512295
:10050000D5015122831611151119842A831208006E
:100510008316111411188A2AB4308312D50051227F
:100520000530D5005122D3015308510784008313AD
:100530005218831780080319A92A53085107840009
:100540008313521883170008D400D5005122D30A10
:10055000942AD5015122831611151119AD2A83123F
:10056000080083163508BC003908BC06BC1FBD2A2C
:1005700003110310B51B0314F02A3508BC0038081A
:10058000BD003408BD020319CB2ABC1FF02A0308A2
:10059000013A8300F02A3908BD003508BD0203196D
:1005A000D72ABC1FF02A0308013A8300F02A3A0830
:1005B000BD003608BD020319E32ABC1FF02A030858
:1005C000013A8300F02A3B08BD003708BD02031939
:1005D000EF2ABC1FF02A0308013A8300F02A031017
:1005E000831208008030831CF82A8316BD0683120C
:1005F0008316C201C3013908C1003D08C10638088D
:100600000319E62BC000F7003C080319EF2BC002CA
:1006100003198B2B031C492B3D08C600C6173E0847
:10062000C5003F08C400C3010310C60CC50CC40CB0
:10063000C30CC00B132BC11F202B4214032C4210E0
:1006400040104216BB3084008313182C4212C11B89
:10065000332B401C3E2BC60CC50CC40CC30CF70A34
:100660000319FE2B3E2BC61B412B0310C30DC40DDB
:10067000C50DC60DF7030319FE2B332B4217AB2B09
:1006800042133908C100C11F472BC617F72BC613E9
:10069000F72B3C08C000F7003808C0023908C60034
:1006A000C6173A08C5003B08C400C3010310C60CB6
:1006B000C50CC40CC30CC00B552BC11F622BC2143C
:1006C000032CC2104010C216BF3084008313182CB4
:1006D000C212C11B752B401C802BC60CC50CC40C50
:1006E000C30CF70A0319FE2B802BC61B832B0310A8
:1006F000C30DC40DC50DC60DF7030319FE2B752BD5
:10070000C217AB2BC2133D08C100C11F892BC617EE
:10071000F72BC613F72B3D08C600C6173E08C500C9
:100720003F08C400C11F982BC6134215032C421169
:10073000C3014010BB3084008313182CC11BC12B94
:100740003908C100401CAB2BC60CC50CC40CC30C33
:10075000F70A0319FE2BC31FBC2BC40A031DBC2BB5
:10076000C50A031DBC2BC60A031DBC2BC60CC50C39
:10077000C40CF70A0319FE2B421B402BC21B822B11
:10078000E02B8030C606C61FC92B032C3D08C100D4
:10079000D62B3908C100C608031DD62BC508031D7A
:1007A000D62BC408031DD62BF701F72BC61BE02B55
:1007B0000310C30DC40DC50DC60DF70BD62BFE2BB4
:1007C000C11FE42BC617F72BC613F72B3C08F70005
:1007D0003D08C6003E08C5003F08C400F72B380896
:1007E000F7003908C6003A08C5003B08C4004608AF
:1007F000F8004508F9004408FA00362CF701F80122
:10080000F901FA01362CC301C409C509C609C30997
:10081000C30A031D112CC40A031D112CC50A031998
:10082000C60A42181F2BC218612B4219972BC62BE0
:100830000008C407031C222CC50A031D222CC60A6B
:100840000319401484030008C507031C2A2CC60A98
:100850000319401484030008801F803AC607031858
:100860004014421A262BC21A682B9E2B83120800B2
:10087000F201F101F0017F30EF007E308316A0001D
:100880008030A100A201A3017A30A4002A30A50083
:10089000AA30A600A330A7007530A800B630A90082
:1008A0000930AA00B430AB006F30AC004F30AD005F
:1008B000B630AE00AA30AF006930B0008B30B10066
:1008C000F630B200E830B300831266088316B70032
:1008D000831265088316B600831264088316B50078
:1008E000831263088316B400BB01BA01B901B801D1
:1008F0008312B122031C7F2C6408803AE40066084E
:100900008316BB00831265088316BA00831264083D
:100910008316B900831263088316B8008330BF00C2
:10092000F930BE002230BD007E30BC0083126D2045
:100930007A088316B7007908B6007808B5007708FA
:10094000B4008E30F7003408F7023508F900360895
:10095000F800F917F7080319B82C0310F908031D5C
:10096000B42CF8080319B82CF90CF80CF70BAD2CC3
:10097000B51FBF2CF809F909F80A0319F90A780814
:10098000F300831266088316BB0083126508831682
:10099000BA00831264088316B900831263088316B1
:1009A000B8008330BF00F930BE002230BD007E3079
:1009B000BC0083126D207A088316B7007908B60050
:1009C0007808B5007708B400B9017308B80083123D
:1009D0004E20831483163708BB003608BA0035084A
:1009E000B9003408B8007A08BF007908BE0078085A
:1009F000BD007708BC008312F2227A08FE00790855
:100A0000FD007808FC007708FB000330F305F308CD
:100A100003190E2D7308023C031D2A2D7E08831630
:100A2000BB007D08BA007C08B9007B08B800DB3049
:100A3000BF000F30BE004930BD007F30BC008312C4
:100A40006D207A08EE007908ED007808EC00770850
:100A5000EB00952D730B612D83148316BB01BA0136
:100A6000B9017F30B8007E08BF007D08BE007C0859
:100A7000BD007B08BC008312F2227A088316B700FF
:100A80007908B6007808B5007708B4003708BB00CD
:100A90003608BA003508B9003408B800DB30BF00AA
:100AA0000F30BE004930BD007F30BC0083126D2086
:100AB0007A08EE007908ED007808EC007708EB0082
:100AC000952D83147E088316BB007D08BA007C0830
:100AD000B9007B08B800BF01BE01BD017F30BC007A
:100AE0008312F2227A088316B7007908B6007808D4
:100AF000B5007708B4003708BB003608BA003508DF
:100B0000B9003408B800DB30BF000F30BE004930F8
:100B1000BD007F30BC0083126D207A08EE0079089A
:100B2000ED007808EC007708EB00EA01E901E80144
:100B30007F30E7006E088316BB0083126D088316B2
:100B4000BA0083126C088316B90083126B088316EF
:100B5000B80083126E088316BF0083126D088316D7
:100B6000BE0083126C088316BD0083126B088316C7
:100B7000BC0083126D207A08EE007908ED00780839
:100B8000EC007708EB00F4017408043C031C482EC9
:100B900072088316BB007108BA007008B90083128E
:100BA0006F088316B80083126E088316BF00831285
:100BB0006D088316BE0083126C088316BD00831275
:100BC0006B088316BC0083126D207A08F200790846
:100BD000F1007808F0007708EF00740DF700F70DCA
:100BE000FC30F7057708A03E8400831300088316C5
:100BF000B400840A0008B500840A0008B600840A1C
:100C00000008B700BB003608BA003508B900340840
:100C1000B8007208BF007108BE007008BD008312E2
:100C20006F088316BC0083126D208316B50104087B
:100C3000B4003510831B3514831083126A088316A1
:100C4000BB00831269088316BA00831268088316F2
:100C5000B900831267088316B8007A08BF007908C4
:100C6000BE007808BD007708BC008312F22283160C
:100C7000340884008313351883177A088312EA0036
:100C80007908E9007808E8007708E700F40AC42D3D
:100C90007308023C03194E2E730B512E6808803ADC
:100CA000E8006708F7006808F8006908F9006A08B2
:100CB000FA0008005208E6005108E5005008E40078
:100CC0004F08E30038247A08D6007908D500780860
:100CD000D4007708D30056088316B700831255084E
:100CE0008316B600831254088316B5008312530886
:100CF0008316B400BB01BA01B901B8018312B12255
:100D0000031D8B2EF630F7004030F8009730F900C5
:100D1000CE30FA00D72E5208DE005108DD00500810
:100D2000DC004F08DB0083145E088316BB008312CF
:100D30005D088316BA0083125C088316B90083121B
:100D40005B088316B800DB30BF000F30BE004930AF
:100D5000BD007F30BC008312F2227A08E2007908DD
:100D6000E1007808E0007708DF007A08E6007908FB
:100D7000E5007808E4007708E30038247A08DA0010
:100D80007908D9007808D8007708D7005A08DE001B
:100D90005908DD005808DC005708DB005608E2005F
:100DA0005508E1005408E0005308DF00E4208A15EC
:100DB0000A12632B1413831691159119DD2E7718DF
:100DC0009112771C91161116111AE42E8312130832
:100DD000F8000800831611141118EC2ED03083127D
:100DE000D50051223B30D500512283169114911821
:100DF000F72ED1308312D50051220130F700DA26C8
:100E0000D101F701DA2678085104CF00D00183160A
:100E100011151119092F83124F08F8005008F90015
:100E20008A150A12D02B0B08D0008B1383160317D8
:100E30008C170C140000000083120313D01B8B17B7
:100E400003184B2F03170C087F390313D000031727
:100E50000D080313D10003170F080313D200500825
:100E60000C1E302F9900510803178D0003135208F0
:100E700003178F0003130B08D3008B13831603177C
:100E80008C170C140000000083120313D31B8B1764
:100E9000CF0B4B2F6B2F03170C0D0E0D7F39031348
:100EA000D00003170D080313D10003170F08031315
:100EB000D20050080C1E5A2F9900510803178D00BC
:100EC0000313520803178F008D0A03198F0A0310AA
:100ED0000313CF0B132F0800D7010408D6005710B7
:100EE000831B5714500EF038D200D207E23ED300D5
:100EF000323ED50050080F39D307D307D507E93E56
:100F0000D400D407D4074F0E0F39D407D507D40D1A
:100F1000D50DD509D50D4F080F39D507D20D07309E
:100F2000D1000A30D507D403031C922FD407D30372
:100F3000031C962FD307D203031C9A2FD207D10389
:100F4000031C9E2F5130840083130730560556131F
:100F5000840755300402031956170008F700031DD3
:100F6000B92F561BB92F561AC12FD619B92F2030B9
:100F7000BC2FD61556123030F70777080C1EBE2F3F
:100F80009900840A561FA92F08006008B63CE000AB
:100F9000FA016108E400E1170310E10CE20CE30C34
:100FA000FA0CF90CF80CF70CE00BCC2FE41FE32F34
:100FB000F709F809F909FA09F70A0319F80A0319F0
:100FC000F90A0319FA0A0800330884008313341855
:100FD000831760088000840A8001B30A0319B40AE9
:020FE000080007
:1010000083180528683084008313F701F801F9017B
:10101000FA01E801E901EA01EB01670866046504E9
:101020006404031943282030EC000310E00DE10DA7
:10103000E20DE30DE80DE90DEA0DEB0D67086B021B
:10104000031D2C2866086A02031D2C286508690206
:10105000031D2C2864086802031C3D286408E8026C
:101060006508031C650FE9026608031C660FEA02A7
:101070006708031C670FEB020314F70DF80DF90D59
:10108000FA0DEC0B152868088000840A69088000B6
:10109000840A6A088000840A6B088000080004083B
:1010A000D4005308D6000319782852088316BB00D1
:1010B000831251088316BA00831250088316B900B0
:1010C00083124F088316B800BF01BE012030BD0057
:1010D0008230BC008A1183126D208A157A08D200F2
:1010E0007908D1007808D0007708CF00D60B5528B2
:1010F0005208E3005108E2005008E1004F08E00008
:101100008A11C5278A157A08D2007908D100780893
:10111000D0007708CF00D21F9A28D403D416CF0965
:10112000D009D109D209CF0A0319D00A0319D10A6B
:101130000319D20A3B30DB009A30DA00CA30D900FA
:10114000D8010A30D60053080319D40A83144F304B
:10115000840083135208E3005108E2005008E100C4
:101160004F08E0005B08E7005A08E6005908E50070
:101170005808E40000207808F708031DD228530A15
:1011800056020319D22854080319D4280F395602DD
:101190000319CC2803180829D41B0829541BD42868
:1011A000203003292030D405D41EE328D41253085C
:1011B000031DD4037708D4002D300C1EDD289900C0
:1011C0005408F700D40153085602031DF22877088B
:1011D000D4002E300C1EEA2899005408F700203065
:1011E000D40500303030D41E0329D4125308031D17
:1011F000D4037708D4002D300C1EFC289900540825
:10120000F700D4013030F70777080C1E0529990044
:1012100083105B08E3005A08E2005908E10058080F
:10122000E000E701E601E5010A30E40000207A0869
:10123000DB007908DA007808D9007708D800D60BE7
:10124000A62808000B08CF008B13831603178C17F2
:101250000C140000000083120313CF1B8B1703171D
:101260000C087F3903197A290313CF0003170D08DF
:101270000313D00003170F080313D1004F08E00039
:101280008A11E4278A15500803178D0003135108AB
:1012900003178F0003130B08D2008B138316031759
:1012A0008C170C140000000083120313D21B8B1741
:1012B00003170C0D0E0D7F3903197A290313CF0084
:1012C00003170D080313D00003170F080313D100F1
:1012D0004F08E0008A11E4278A15500803178D0093
:1012E0000313510803178F008D0A03198F0A031384
:1012F00022290317031308000408D8005708DA004E
:101300000319A52956088316BB00831255088316B6
:10131000BA00831254088316B90083125308831647
:10132000B800BF01BE012030BD008230BC008A1170
:1013300083126D208A157A08D6007908D5007808BE
:10134000D4007708D300DA0B82295608E300550849
:10135000E2005408E1005308E0008A11C5278A150D
:101360007A08D6007908D5007808D4007708D30029
:10137000D61FC729D803D816D309D409D509D60949
:10138000D30A0319D40A0319D50A0319D60A3B3024
:10139000DF009A30DE00CA30DD00DC010A30DA00FE
:1013A00057080319D80A831453308400831356084E
:1013B000E3005508E2005408E1005308E0005F082C
:1013C000E7005E08E6005D08E5005C08E400002038
:1013D0007808F708031DFF29570A5A020319FF2945
:1013E00058080319012A0F395A020319F929031859
:1013F000392AD81B392A581B012A2030332A203099
:10140000D805D81E112AD8125708031DD80377080B
:10141000D8002D30E0008A11E4278A155808F7001B
:10142000D80157085A02031D212A7708D8002E3008
:10143000E0008A11E4278A155808F7002030D80503
:1014400000303030D81E332AD8125708031DD80375
:101450007708D8002D30E0008A11E4278A15580853
:10146000F700D8013030F7077708E0008A11E42749
:101470008A1583105F08E3005E08E2005D08E10062
:101480005C08E000E701E601E5010A30E400002025
:101490007A08DF007908DE007808DD007708DC00D4
:1014A000DA0BD329080003081F3983007130831633
:1014B0008F0090010F08031787110C300313990058
:1014C000A2309800903083129800FF30A000A01541
:1014D00020088316870083122016200883168700B1
:1014E000133093002830831294008316941714133A
:1014F0008312B401B301831603170908C0398900A8
:1015000003131F129F1200300317880083128701F4
:101510008801890183133530031390008316031764
:101520000908C039890003131F129F1201300317E5
:101530008800831203131F179F1783169F178312A8
:101540001F140030F8001F08C33978049F003230A0
:10155000D0008A113A208A159F149F18AD2A83164D
:101560001E088312A1001E08A2002108FD3CF700FE
:101570000330FA002208031C220FFA0277088316B0
:10158000B8007A08B9008A1183124E208A15831692
:10159000BB01BA011B30B9008630B8007A08BF0021
:1015A0007908BE007808BD007708BC008A11831254
:1015B0006D208A157A08D2007908D1007808D00009
:1015C0007708CF007A08DE007908DD007808DC00B3
:1015D0007708DB00E2018030E1004130E000873035
:1015E000DF008A11E4208A157A08A6007908A50090
:1015F0007808A4007708A3008A11AE298A157A0812
:10160000AA007908A9007808A8007708A70083161F
:1016100086178312861B362B2A08B8002908B700C4
:101620002808B6002708B5008A1161228A15013002
:10163000CF008A1172228A15F8010C30F700393078
:101640008400831378088A1104208A158000F80A20
:10165000840AF70B222BD2013930D1008A1188225B
:101660008A156430D0008A113A208A15260883161C
:10167000BB00831225088316BA0083122408831640
:10168000B900831223088316B8003930BF00FA303E
:10169000BE000E30BD007930BC008A1183126D206F
:1016A0008A157A08B2007908B1007808B000770886
:1016B000AF003208D2003108D1003008D0002F0826
:1016C000CF008A115A2E8A157A08D2007908D100E3
:1016D0007808D0007708CF007A088316BB00831201
:1016E00079088316BA00831278088316B90083122A
:1016F00077088316B80083122A088316BF00831266
:1017000029088316BE00831228088316BD008312A1
:1017100027088316BC008A1183126D208A157A0867
:10172000D2007908D1007808D0007708CF00D40122
:101730000408D3005410831B541483107A088316B2
:10174000BB00831279088316BA00831278088316C7
:10175000B900831277088316B800831238088316FD
:10176000BF00831237088316BE0083123608831623
:10177000BD00831235088316BC008A118312F22241
:101780008A15530884008313541883177A08AE000F
:101790007908AD007808AC007708AB008A11EA2E12
:1017A0008A157908C6007808C500143003178D0023
:1017B00000308F00031006300313CF008A11132767
:1017C0008A15103084004608D0004508CF008A11E1
:1017D0006C278A15183003178D0000308F00031412
:1017E0000A300313CF008A1113278A1510308400A2
:1017F0002208D0002108CF008A116C278A151F30DB
:1018000003178D0000308F00031009300313CF0041
:101810008A1113278A15893084002608D2002508EA
:10182000D1002408D0002308CF000230D3004F207D
:10183000253003178D0000308F0003140730031389
:10184000CF008A1113278A15893084002A08D20014
:101850002908D1002808D0002708CF000230D30083
:101860004F202B3003178D0000308F0003100A30FB
:101870000313CF008A1113278A15893084002E089C
:10188000D2002D08D1002C08D0002B08CF00023048
:10189000D3004F20313003178D0000308F0003102C
:1018A00005300313CF008A1113278A156430D00046
:1018B0008A113A208A158A1161228A150130CF00D7
:1018C0008A1172228A154430C9006530CA00673017
:1018D000CB003A30CC00CD01D2014930D1008A1181
:1018E00088228A158316B701B6013430B5008530D9
:1018F000B400831226088316BB00831225088316C2
:10190000BA00831224088316B900831223088316B1
:10191000B8008A118312B1228A150318912C031D75
:101920009D2C4808B4004708B300343003178D00DD
:1019300000308F0003132221AE2C4808B400470862
:10194000B300893084002608D6002508D500240875
:10195000D4002308D3000130D7007C210530CF000C
:101960008A1172228A154808D2004708D1008A11CC
:1019700088228A150930CF008A1172228A154430D4
:10198000C9006930CA007330CB003A30CC00CD01B9
:10199000D2014930D1008A1188228A152A08DE0036
:1019A0002908DD002808DC002708DB00E201E1014E
:1019B0004830E0008530DF008A11E4208A157A087B
:1019C000D2007908D1007808D0007708CF00480805
:1019D000B4004708B300893084007A08D60079083B
:1019E000D5007808D4007708D3000230D7007C21D6
:1019F0004808D2004708D1008A1188228A15113080
:101A0000CF008A1172228A157430C9006130CA0071
:101A10006C30CB00CC003A30CD00CE01D201493041
:101A2000D1008A1188228A158316B701B601343095
:101A3000B5008530B400831226088316BB008312DC
:101A400025088316BA00831224088316B90083126E
:101A500023088316B8008A118312B1228A1503184D
:101A6000332D031D3F2D4808B4004708B30037301D
:101A700003178D0000308F0003132221502D4808DA
:101A8000B4004708B300893084002E08D6002D0822
:101A9000D5002C08D4002B08D3000130D7007C21BE
:101AA0004808D2004708D1008A1188228A150230DE
:101AB000CF009630D0008A113A208A15CF0B592DCD
:041AC000AC2A6300E9
:04400E00C42FFF3F7D
:00000001FF
;PIC16F886
;CRC=026A  CREATED="04-Apr-17 23:02"
