:100000000A308A00532A00000A108A100A11820757
:10001000433461346C34693462347234613474341E
:100020006534643421340034D332EE396F393D10F5
:100030002526F504C4326739E5323D1025173233E1
:100040000922E939F41EA0122E196610E336201099
:10005000F4306C36BD126610E3360D050000AD16A7
:10006000AD160000AD16AD1600014E3084008313AE
:100070000008031948280230F800F701F70B3E2862
:10008000F80B3D289730F700F70B4428800B3B28EE
:1000900008008E30F70083163908F8003808F90098
:1000A000FA01F808031D5E287908F800F901083004
:1000B000F702F808031D5E28F70166280310F81BF5
:1000C0006528F90DF80DF7035E28F8138312080070
:1000D000831638080319D928C0003C080319D92809
:1000E000C00703187A287F30C002031CD9280319DF
:1000F000D9287E288130C0070318D9284008F70086
:10010000F801F901FA013908C400C4173A08C3001C
:100110003B08C2001830C000C101421CA7283F089C
:10012000FA07031C9928F90A031D9928F80A0319EC
:10013000C1173E08F907031CA028F80A0319C117C4
:100140003D08BA00BA173A08F8070318C117C10DDD
:10015000F80CF90CFA0CC40CC30CC20C0310C00B45
:100160008C280130F7070318D928F81BBE28C40DC6
:10017000FA0DF90DF80DF7030319D928C41FCF287C
:10018000FA0A031DCF28F90A031DCF28F80A031D18
:10019000CF28F80CF90CFA0CF70A0319D9283908FA
:1001A000C1003D08C106C11FD728F817DD28F81384
:1001B000DD28F701F801F901FA0183120800590856
:1001C0000319A429E5005D080319A429E502031C0D
:1001D000EE287F30E5070318A429F4288130E502D2
:1001E000031CA4290319A4296508F700F801F901E3
:1001F000FA01E4015A08E300E3175B08E2005C0837
:10020000E1001930E5006008E10203181729013008
:10021000E20203181729E30203181729E40203185E
:100220001729E40AE30AE20A6008E10749295F089E
:10023000E202031832290130E30203183229E402F2
:1002400003183229E40AE30A5F08E2076008E107BD
:10025000031C4929E20A031D4929E30A031D492910
:10026000E40A49295E088038E3020318482901306E
:10027000E40203184829E40A5E088038E3075F08AF
:10028000E207031C2629E30A031D2629E40A26297E
:100290007A14E50B4C2957290310E10DE20DE30D0B
:1002A000E40D0310FA0DF90DF80DE60D0329661C97
:1002B0005F290310F80CF90CFA0CE60C6229F7031D
:1002C0000319A429E61B8B290310E10DE20DE30DB0
:1002D000E40D6008E102031877290130E2020318F7
:1002E0007729E30203187729E402031C9A295F089F
:1002F000E202031882290130E30203188229E40292
:10030000031C9A295E088038E30203188B29013008
:10031000E402031C9A29FA0A031D9A29F90A031D0B
:100320009A29F80A031D9A29F70A0319A429F80C37
:10033000F90CFA0C5A08E5005E08E506E51FA2294B
:10034000F817A829F813A829F701F801F901FA010B
:1003500008002010200883168700831207140D3030
:10036000F700F70BB12920102008831687008312AD
:100370000710A0142008831687008312871CB92950
:100380008E018F018E01A01420088316870083122E
:10039000871CE9290F08FA000E08F7000F087A02F7
:1003A000031DCA297708D1007A08D2005208FE3C02
:1003B0000318E829FF3A031DE1295108FD3C031801
:1003C000E8297F30F7008030F800F901FA01672A48
:1003D000C3290F08FA000E08F7000F087A02031D60
:1003E000E9297708D1007A08D200D10DD20DD10DBC
:1003F000D20DFC30D10552088316B9008312510882
:100400008316B800831249207A088316BB00790846
:10041000BA007808B9007708B8006F30BF00123012
:10042000BE000330BD007430BC00831268207A081F
:10043000D0007908CF007808CE007708CD005008AA
:100440008316BB0083124F088316BA0083124E082E
:100450008316B90083124D088316B800E130BF003F
:100460000B30BE003330BD007D30BC0083126820ED
:100470007A08D4007908D3007808D2007708D10030
:100480007A088316BB00831279088316BA00831298
:1004900078088316B900831277088316B800BF0165
:1004A000BE014830BD008530BC00831268207A0848
:1004B000D0007908CF007808CE007708CD004D082D
:1004C000F7004E08F8004F08F9005008FA008A15A6
:1004D0000A12FE2A94138C11530893000230941BC5
:1004E000782A8C1D712A00308316111B013083126B
:1004F000F80008008316111411187C2AB4308312F6
:10050000D3006A220630D3006A228316111511190E
:10051000872A831208008316111411188D2AB4300B
:100520008312D3006A220830D3006A224D08D30018
:100530006A22D3016A228316111511199D2A83128A
:100540000800831611141118A32AB4308312D300A3
:100550006A220530D3006A22D10151084F07840076
:1005600083135018831780080319C22A51084F07B4
:1005700084008313501883170008D200D3006A2226
:10058000D10AAD2AD3016A22831611151119C62A80
:100590008312080083163508BC003908BC06BC1F4E
:1005A000D62A03110310B51B0314092B3508BC0010
:1005B0003808BD003408BD020319E42ABC1F092B0A
:1005C0000308013A8300092B3908BD003508BD0234
:1005D0000319F02ABC1F092B0308013A8300092BD9
:1005E0003A08BD003608BD020319FC2ABC1F092BBE
:1005F0000308013A8300092B3B08BD003708BD0200
:100600000319082BBC1F092B0308013A8300092B8F
:100610000310831208008030831C112B8316BD0643
:1006200083128316C201C3013908C1003D08C10607
:1006300038080319FF2BC000F7003C080319082CE9
:10064000C0020319A42B031C622B3D08C600C61769
:100650003E08C5003F08C400C3010310C60CC50C0A
:10066000C40CC30CC00B2C2BC11F392B42141C2CE7
:10067000421040104216BB3084008313312C4212CA
:10068000C11B4C2B401C572BC60CC50CC40CC30CF7
:10069000F70A0319172C572BC61B5A2B0310C30D2F
:1006A000C40DC50DC60DF7030319172C4C2B4217AB
:1006B000C42B42133908C100C11F602BC617102C70
:1006C000C613102C3C08C000F7003808C0023908D7
:1006D000C600C6173A08C5003B08C400C301031092
:1006E000C60CC50CC40CC30CC00B6E2BC11F7B2BDE
:1006F000C2141C2CC2104010C216BF3084008313D9
:10070000312CC212C11B8E2B401C992BC60CC50C60
:10071000C40CC30CF70A0319172C992BC61B9C2B6E
:100720000310C30DC40DC50DC60DF7030319172C17
:100730008E2BC217C42BC2133D08C100C11FA22BB0
:10074000C617102CC613102C3D08C600C6173E084D
:10075000C5003F08C400C11FB12BC61342151C2C95
:100760004211C3014010BB3084008313312CC11BE4
:10077000DA2B3908C100401CC42BC60CC50CC40CB4
:10078000C30CF70A0319172CC31FD52BC40A031D6A
:10079000D52BC50A031DD52BC60A031DD52BC60CA8
:1007A000C50CC40CF70A0319172C421B592BC21B8A
:1007B0009B2BF92B8030C606C61FE22B1C2C3D0854
:1007C000C100EF2B3908C100C608031DEF2BC50877
:1007D000031DEF2BC408031DEF2BF701102CC61BC4
:1007E000F92B0310C30DC40DC50DC60DF70BEF2B70
:1007F000172CC11FFD2BC617102CC613102C3C083C
:10080000F7003D08C6003E08C5003F08C400102C94
:100810003808F7003908C6003A08C5003B08C4008C
:100820004608F8004508F9004408FA004F2CF70183
:10083000F801F901FA014F2CC301C409C509C60921
:10084000C309C30A031D2A2CC40A031D2A2CC50A86
:100850000319C60A4218382BC2187A2B4219B02B3A
:10086000DF2B0008C407031C3B2CC50A031D3B2CCF
:10087000C60A0319401484030008C507031C432C4F
:10088000C60A0319401484030008801F803AC60773
:1008900003184014421A3F2BC21A812BB72B831224
:1008A0000800F001EF01EE017F30ED007E3083168D
:1008B000A0008030A100A201A3017A30A4002A3058
:1008C000A500AA30A600A330A7007530A800B63056
:1008D000A9000930AA00B430AB006F30AC004F3033
:1008E000AD00B630AE00AA30AF006930B0008B303A
:1008F000B100F630B200E830B3008312640883160A
:10090000B700831263088316B60083126208831649
:10091000B500831261088316B400BB01BA01B901A6
:10092000B8018312CA22031C982C6208803AE200A4
:1009300064088316BB00831263088316BA0083120F
:1009400062088316B900831261088316B8008330E9
:10095000BF00F930BE002230BD007E30BC008312E3
:1009600068207A088316B7007908B6007808B500C1
:100970007708B4008E30F7003408F7023508F90024
:100980003608F800F917F7080319D12C0310F908F5
:10099000031DCD2CF8080319D12CF90CF80CF70B1A
:1009A000C62CB51FD82CF809F909F80A0319F90A59
:1009B0007808F100831264088316BB008312630871
:1009C0008316BA00831262088316B9008312610885
:1009D0008316B8008330BF00F930BE002230BD005E
:1009E0007E30BC00831268207A08FE007908FD0082
:1009F0007808FC007708FB008316B9017108B8007D
:100A00008312492083147E088316BB007D08BA0038
:100A10007C08B9007B08B8007A08BF007908BE00DE
:100A20007808BD007708BC0083120B237A08F60013
:100A30007908F5007808F4007708F3000330F10531
:100A4000F1080319272D7108023C031D432D760878
:100A50008316BB007508BA007408B9007308B800A3
:100A6000DB30BF000F30BE004930BD007F30BC001E
:100A7000831268207A08EC007908EB007808EA0015
:100A80007708E900AE2D710B7A2D83148316BB0114
:100A9000BA01B9017F30B8007608BF007508BE0002
:100AA0007408BD007308BC0083120B237A08FE0093
:100AB0007908FD007808FC007708FB007E088316A3
:100AC000BB007D08BA007C08B9007B08B800DB30A9
:100AD000BF000F30BE004930BD007F30BC00831224
:100AE00068207A08EC007908EB007808EA007708BB
:100AF000E900AE2D831476088316BB007508BA0092
:100B00007408B9007308B800BF01BE01BD017F3091
:100B1000BC0083120B237A08FE007908FD007808D8
:100B2000FC007708FB007A088316BB007908BA003E
:100B30007808B9007708B800DB30BF000F30BE007E
:100B40004930BD007F30BC00831268207A08EC0079
:100B50007908EB007808EA007708E900E801E70186
:100B6000E6017F30E5006C088316BB0083126B083A
:100B70008316BA0083126A088316B90083126908C3
:100B80008316B80083126C088316BF0083126B08AB
:100B90008316BE0083126A088316BD00831269089B
:100BA0008316BC00831268207A08EC007908EB00F9
:100BB0007808EA007708E900F2017208043C031C97
:100BC000652E70088316BB0083126F088316BA0067
:100BD00083126E088316B90083126D088316B8005D
:100BE00083126C088316BF0083126B088316BE0045
:100BF00083126A088316BD00831269088316BC003D
:100C0000831268207A08F0007908EF007808EE0077
:100C10007708ED00720DF700F70DFC30F705770847
:100C2000A03E840083130008FB00840A0008FC0037
:100C3000840A0008FD00840A0008FE008316BB0039
:100C40007D08BA007C08B9007B08B8007008BF00B6
:100C500083126F088316BE0083126E088316BD00D0
:100C600083126D088316BC0083126820FC010408FF
:100C7000FB007C10831B7C14831068088316BB0068
:100C8000831267088316BA00831266088316B900B8
:100C9000831265088316B8007A08BF007908BE0081
:100CA0007808BD007708BC0083120B237B08840002
:100CB00083137C1883177A08E8007908E70078081E
:100CC000E6007708E500F20ADD2D7108023C031901
:100CD0006B2E710B6E2E6608803AE6006508F700F1
:100CE0006608F8006708F9006808FA00080050086C
:100CF000E4004F08E3004E08E2004D08E1005124F3
:100D00007A08D4007908D3007808D2007708D10097
:100D100054088316B700831253088316B600831253
:100D200052088316B500831251088316B400BB0124
:100D3000BA01B901B8018312CA22031DA82EF630E8
:100D4000F7004030F8009730F900CE30FA00F42E6A
:100D50005008DC004F08DB004E08DA004D08D900CF
:100D600083145C088316BB0083125B088316BA00E9
:100D700083125A088316B900831259088316B800E3
:100D8000DB30BF000F30BE004930BD007F30BC00FB
:100D900083120B237A08E0007908DF007808DE0070
:100DA0007708DD007A08E4007908E3007808E200BB
:100DB0007708E10051247A08D8007908D70078082C
:100DC000D6007708D5005808DC005708DB00560825
:100DD000DA005508D9005408E0005308DF00520833
:100DE000DE005108DD00DF208A150A12632B0B0894
:100DF000CE008B13831603178C170C140000000011
:100E000083120313CE1B8B1703182F2F03170C0805
:100E10007F390313CE0003170D080313CF00031708
:100E20000F080313D0004E080C1E142F99004F0812
:100E300003178D000313500803178F0003130B08CB
:100E4000D1008B13831603178C170C1400000000BD
:100E500083120313D11B8B17CD0B2F2F4F2F03178B
:100E60000C0D0E0D7F390313CE0003170D0803136D
:100E7000CF0003170F080313D0004E080C1E3E2F9F
:100E800099004F0803178D000313500803178F00B4
:100E90008D0A03198F0A03100313CD0BF72E0800D8
:100EA000D5010408D4005510831B55144E0EF0389C
:100EB000D000D007E23ED100323ED3004E080F39B9
:100EC000D107D107D307E93ED200D207D2074D0E92
:100ED0000F39D207D307D20DD30DD309D30D4D0847
:100EE0000F39D307D00D0730CF000A30D307D20314
:100EF000031C762FD207D103031C7A2FD107D0030E
:100F0000031C7E2FD007CF03031C822F4F30840099
:100F10008313073054055413840753300402031914
:100F200054170008F700031D9D2F541B9D2F541AC2
:100F3000A52FD4199D2F2030A02FD4155412303056
:100F4000F70777080C1EA22F9900840A541F8D2FD3
:100F50008A150A12E22B5E08B63CDE00FA015F0831
:100F6000E200DF170310DF0CE00CE10CFA0CF90CC7
:100F7000F80CF70CDE0BB22FE21FC92FF709F809A6
:100F8000F909FA09F70A0319F80A0319F90A031902
:100F9000FA0A0800330884008313341883175E08A4
:0E0FA0008000840A8001B30A0319B40A080015
:1010000083180528663084008313F701F801F9017D
:10101000FA01E601E701E801E901650864046304F7
:101020006204031943282030EA000310DE0DDF0DAF
:10103000E00DE10DE60DE70DE80DE90D650869022B
:10104000031D2C2864086802031D2C28630867020E
:10105000031D2C2862086602031C3D286208E60274
:101060006308031C630FE7026408031C640FE802B3
:101070006508031C650FE9020314F70DF80DF90D5F
:10108000FA0DEA0B152866088000840A67088000BC
:10109000840A68088000840A69088000080004083F
:1010A000D2005108D4000319782850088316BB00D9
:1010B00083124F088316BA0083124E088316B900B4
:1010C00083124D088316B800BF01BE012030BD0059
:1010D0008230BC008A11831268208A157A08D000F9
:1010E0007908CF007808CE007708CD00D40B5528BA
:1010F0005008E1004F08E0004E08DF004D08DE0018
:101100008A11AB278A157A08D0007908CF007808B1
:10111000CE007708CD00D01F9A28D203D216CD0971
:10112000CE09CF09D009CD0A0319CE0A0319CF0A77
:101130000319D00A3B30D9009A30D800CA30D70002
:10114000D6010A30D40051080319D20A83144D3055
:10115000840083135008E1004F08E0004E08DF00D0
:101160004D08DE005908E5005808E4005708E30080
:101170005608E20000207808F708031DD228510A1B
:1011800054020319D22852080319D4280F395402E3
:101190000319CC2803180829D21B0829521BD4286C
:1011A000203003292030D205D21EE328D212510864
:1011B000031DD2037708D2002D300C1EDD289900C4
:1011C0005208F700D20151085402031DF228770893
:1011D000D2002E300C1EEA2899005208F700203069
:1011E000D20500303030D21E0329D2125108031D1F
:1011F000D2037708D2002D300C1EFC28990052082B
:10120000F700D2013030F70777080C1E0529990046
:1012100083105908E1005808E0005708DF0056081D
:10122000DE00E501E401E3010A30E20000207A0873
:10123000D9007908D8007808D7007708D600D40BF1
:10124000A62808000B08CD008B13831603178C17F4
:101250000C140000000083120313CD1B8B1703171F
:101260000C087F3903197A290313CD0003170D08E1
:101270000313CE0003170F080313CF004D08DE0041
:101280008A11CA278A154E0803178D0003134F08C9
:1012900003178F0003130B08D0008B13831603175B
:1012A0008C170C140000000083120313D01B8B1743
:1012B00003170C0D0E0D7F3903197A290313CD0086
:1012C00003170D080313CE0003170F080313CF00F5
:1012D0004D08DE008A11CA278A154E0803178D00B3
:1012E00003134F0803178F008D0A03198F0A031386
:1012F00022290317031308000408D6005508D80054
:101300000319A52954088316BB00831253088316BA
:10131000BA00831252088316B9008312510883164B
:10132000B800BF01BE012030BD008230BC008A1170
:10133000831268208A157A08D4007908D3007808C7
:10134000D2007708D100D80B82295408E100530855
:10135000E0005208DF005108DE008A11AB278A1531
:101360007A08D4007908D3007808D2007708D10031
:10137000D41FC729D603D616D109D209D309D40957
:10138000D10A0319D20A0319D30A0319D40A3B302C
:10139000DD009A30DC00CA30DB00DA010A30D80008
:1013A00055080319D60A8314513084008313540856
:1013B000E1005308E0005208DF005108DE005D083C
:1013C000E5005C08E4005B08E3005A08E200002046
:1013D0007808F708031DFF29550A58020319FF2949
:1013E00056080319012A0F3958020319F92903185D
:1013F000392AD61B392A561B012A2030332A20309D
:10140000D605D61E112AD6125508031DD603770815
:10141000D6002D30DE008A11CA278A155608F7003B
:10142000D60155085802031D212A7708D6002E3010
:10143000DE008A11CA278A155608F7002030D60523
:1014400000303030D61E332AD6125508031DD6037D
:101450007708D6002D30DE008A11CA278A15560873
:10146000F700D6013030F7077708DE008A11CA2767
:101470008A1583105D08E1005C08E0005B08DF006E
:101480005A08DE00E501E401E3010A30E200002031
:101490007A08DD007908DC007808DB007708DA00DC
:1014A000D80BD329080003081F3983007130831635
:1014B0008F0090010F08031787110C300313990058
:1014C000A2309800903083129800FF30A000A01541
:1014D00020088316870083122016200883168700B1
:1014E000133093002830831294008316941714133A
:1014F0008312B401B301831603170908C0398900A8
:1015000003131F129F1200300317880083128701F4
:101510008801890183133530031390008316031764
:101520000908C039890003131F129F1201300317E5
:101530008800831203131F179F1783169F178312A8
:101540001F140030F8001F08C33978049F003230A0
:10155000CE008A1135208A159F149F18AD2A831654
:101560001E088312A1001E08A2002108FD3CF700FE
:101570000330FA002208031C220FFA0277088316B0
:10158000B8007A08B9008A11831249208A15831697
:10159000BB01BA011B30B9008630B8007A08BF0021
:1015A0007908BE007808BD007708BC008A11831254
:1015B00068208A157A08D0007908CF007808CE0014
:1015C0007708CD007A08DC007908DB007808DA00BB
:1015D0007708D900E0018030DF004130DE0087303D
:1015E000DD008A11DF208A157A08A6007908A50097
:1015F0007808A4007708A3008A11A9298A157A0817
:10160000AA007908A9007808A8007708A70083161F
:1016100086178312861B362B2A08B8002908B700C4
:101620002808B6002708B5008A117A228A150130E9
:10163000CD008A118B228A15F8010C30F700393061
:101640008400831378088A1104208A158000F80A20
:10165000840AF70B222BD0013930CF008A11A12246
:101660008A156430CE008A1135208A152608831623
:10167000BB00831225088316BA0083122408831640
:10168000B900831223088316B8003930BF00FA303E
:10169000BE000E30BD007930BC008A118312682074
:1016A0008A157A08B2007908B1007808B000770886
:1016B000AF003208D0003108CF003008CE002F082C
:1016C000CD008A11772E8A157A08D0007908CF00CC
:1016D0007808CE007708CD007A088316BB00831205
:1016E00079088316BA00831278088316B90083122A
:1016F00077088316B80083122A088316BF00831266
:1017000029088316BE00831228088316BD008312A1
:1017100027088316BC008A11831268208A157A086C
:10172000D0007908CF007808CE007708CD00D2012C
:101730000408D1005210831B521483107A088316B8
:10174000BB00831279088316BA00831278088316C7
:10175000B900831277088316B800831238088316FD
:10176000BF00831237088316BE0083123608831623
:10177000BD00831235088316BC008A1183120B2327
:101780008A15510884008313521883177A08AE0013
:101790007908AD007808AC007708AB001430031767
:1017A0008D0000308F00031008300313CD008A1124
:1017B000F7268A15103084002208CE002108CD00BB
:1017C0008A11502F8A15193003178D0000308F00B1
:1017D000031409300313CD008A11F7268A158930C6
:1017E00084002608D0002508CF002408CE00230856
:1017F000CD000230D1004F20203003178D00003083
:101800008F00031007300313CD008A11F7268A15C5
:10181000893084002A08D0002908CF002808CE008B
:101820002708CD000230D1004F20253003178D004E
:1018300000308F0003140A300313CD008A11F726FD
:101840008A15893084002E08D0002D08CF002C087E
:10185000CE002B08CD000230D1004F202B300317D3
:101860008D0000308F00031405300313CD008A1162
:10187000F7268A156430CE008A1135208A158A1120
:101880007A228A150130CD008A118B228A154430C4
:10189000C7006530C8006730C9003A30CA00CB01C4
:1018A000D0014730CF008A11A1228A158316B701D3
:1018B000B6013430B5008530B40083122608831693
:1018C000BB00831225088316BA00831224088316EE
:1018D000B900831223088316B8008A118312CA2222
:1018E0008A150318752C031D812C4608B400450881
:1018F000B3002F3003178D0000308F000313222117
:10190000922C4608B4004508B300893084002608AC
:10191000D4002508D3002408D2002308D1000130C8
:10192000D5007C210530CD008A118B228A1546080E
:10193000D0004508CF008A11A1228A150930CD00B8
:101940008A118B228A154430C7006930C800733071
:10195000C9003A30CA00CB01D0014730CF008A110C
:10196000A1228A152A08DC002908DB002808DA00F1
:101970002708D900E001DF014830DE008530DD00B6
:101980008A11DF208A157A08D0007908CF007808FC
:10199000CE007708CD004608B4004508B300893072
:1019A00084007A08D4007908D3007808D200770838
:1019B000D1000230D5007C214608D0004508CF0078
:1019C0008A11A1228A151130CD008A118B228A1525
:1019D0007430C7006130C8006C30C900CA003A30AA
:1019E000CB00CC01D0014730CF008A11A1228A154B
:1019F0008316B701B6013430B5008530B4008312C8
:101A000026088316BB00831225088316BA008312AA
:101A100024088316B900831223088316B8008A119C
:101A20008312CA228A150318172D031D232D460879
:101A3000B4004508B300323003178D0000308F002A
:101A400003132221342D4608B4004508B300893021
:101A500084002E08D4002D08D3002C08D2002B08B7
:101A6000D1000130D5007C214608D0004508CF00C8
:101A70008A11A1228A150230CD009630CE008A113B
:0C1A800035208A15CD0B3D2DAC2A6300EB
:04400E00C42FFF3F7D
:00000001FF
;PIC16F886
;CRC=DA8A  CREATED="30-Mar-17 14:34"
