:100000000A308A000D2A00000A108A100A1182079D
:10001000433461346C34693462347234613474341E
:100020006534643421340034D332EE396F393D10F5
:100030002526F504C4326739E5323D1025173233E1
:100040000922E939F41EA0122E196610E336201099
:10005000F4306C36BD126610E3360D050000AD16A7
:10006000AD160000AD16AD1600014E3084008313AE
:100070000008031948280230F800F701F70B3E2862
:10008000F80B3D289730F700F70B4428800B3B28EE
:100090000800831638080319BA28C0003C08031961
:1000A000BA28C00703185B287F30C002031CBA2897
:1000B0000319BA285F288130C0070318BA284008FE
:1000C000F700F801F901FA013908C400C4173A0829
:1000D000C3003B08C2001830C000C101421C882880
:1000E0003F08FA07031C7A28F90A031D7A28F80A40
:1000F0000319C1173E08F907031C8128F80A0319E0
:10010000C1173D08BA00BA173A08F8070318C11713
:10011000C10DF80CF90CFA0CC40CC30CC20C031082
:10012000C00B6D280130F7070318BA28F81B9F2869
:10013000C40DFA0DF90DF80DF7030319BA28C41F01
:10014000B028FA0A031DB028F90A031DB028F80ADE
:10015000031DB028F80CF90CFA0CF70A0319BA2899
:100160003908C1003D08C106C11FB828F817BE28CC
:10017000F813BE28F701F801F901FA01831208000B
:10018000590803198529E5005D0803198529E50249
:10019000031CCF287F30E50703188529D528813037
:1001A000E502031C8529031985296508F700F80174
:1001B000F901FA01E4015A08E300E3175B08E200E1
:1001C0005C08E1001930E5006008E1020318F82836
:1001D0000130E2020318F828E3020318F828E402C9
:1001E0000318F828E40AE30AE20A6008E1072A296A
:1001F0005F08E202031813290130E30203181329F0
:10020000E40203181329E40AE30A5F08E20760081E
:10021000E107031C2A29E20A031D2A29E30A031D18
:100220002A29E40A2A295E088038E30203182929CA
:100230000130E40203182929E40A5E088038E30744
:100240005F08E207031C0729E30A031D0729E40AE4
:1002500007297A14E50B2D2938290310E10DE20D49
:10026000E30DE40D0310FA0DF90DF80DE60DE42889
:10027000661C40290310F80CF90CFA0CE60C432913
:10028000F70303198529E61B6C290310E10DE20D24
:10029000E30DE40D6008E102031858290130E20281
:1002A00003185829E30203185829E402031C7B2988
:1002B0005F08E202031863290130E302031863298F
:1002C000E402031C7B295E088038E30203186C29D2
:1002D0000130E402031C7B29FA0A031D7B29F90A79
:1002E000031D7B29F80A031D7B29F70A03198529B9
:1002F000F80CF90CFA0C5A08E5005E08E506E51F53
:100300008329F8178929F8138929F701F801F901D8
:10031000FA0108008E30F70083163908F800380813
:10032000F900FA01F808031D9F297908F800F9017E
:100330000830F702F808031D9F29F701A7290310C9
:10034000F81BA629F90DF80DF7039F29F81383125E
:100350000800201020088316870083120714063037
:10036000F700F70BB1290000201020088316870042
:1003700083120710A0142008831687008312871C9D
:10038000BA298E018F018E01A014200883168700E0
:1003900083128718C4290F08FA000E08F7000F0807
:1003A0007A02031DCB297708D1007A08D200D10D3B
:1003B000D20DD10DD20DFC30D10552088316B900F3
:1003C000831251088316B80083128A217A08831693
:1003D000BB007908BA007808B9007708B8006F3018
:1003E000BF001230BE000330BD007430BC00831269
:1003F00049207A08D0007908CF007808CE00770825
:10040000CD0050088316BB0083124F088316BA0034
:1004100083124E088316B90083124D088316B80064
:10042000E130BF000B30BE003330BD007D30BC007A
:10043000831249207A08D4007908D3007808D200C2
:100440007708D1007A088316BB00831279088316D7
:10045000BA00831278088316B900831277088316CE
:10046000B800BF01BE014830BD008530BC0083121A
:1004700049207A08D0007908CF007808CE007708A4
:10048000CD004D08F7004E08F8004F08F90050085D
:10049000FA008A150A12E62A94138C115308930065
:1004A0000230941B5A2A8C1D532A00308316111BCC
:1004B00001308312F80008008316111411185E2A07
:1004C000B4308312D3004C220630D3004C22831662
:1004D00011151119692A83120800831611141118B5
:1004E0006F2AB4308312D3004C220830D3004C2240
:1004F0004D08D3004C22D3014C228316111511193B
:100500007F2A83120800831611141118852AB4302B
:100510008312D3004C220530D3004C22D101510864
:100520004F07840083135018831780080319A42AE7
:1005300051084F0784008313501883170008D20016
:10054000D3004C22D10A8F2AD3014C2283161115D5
:100550001119A82A8312080083163508BC0039082F
:10056000BC06BC1FB82A03110310B51B0314EB2AE9
:100570003508BC003808BD003408BD020319C62A7E
:10058000BC1FEB2A0308013A8300EB2A3908BD009F
:100590003508BD020319D22ABC1FEB2A0308013A11
:1005A0008300EB2A3A08BD003608BD020319DE2A93
:1005B000BC1FEB2A0308013A8300EB2A3B08BD006D
:1005C0003708BD020319EA2ABC1FEB2A0308013AC7
:1005D0008300EB2A0310831208008030831CF32A67
:1005E0008316BD0683128316C201C3013908C100F8
:1005F0003D08C10638080319E12BC000F7003C088C
:100600000319EA2BC0020319862B031C442B3D0857
:10061000C600C6173E08C5003F08C400C30103104A
:10062000C60CC50CC40CC30CC00B0E2BC11F1B2B5E
:100630004214FE2B421040104216BB30840083133C
:10064000132C4212C11B2E2B401C392BC60CC50C7F
:10065000C40CC30CF70A0319F92B392BC61B3C2B0E
:100660000310C30DC40DC50DC60DF7030319F92BF7
:100670002E2B4217A62B42133908C100C11F422B53
:10068000C617F22BC613F22B3C08C000F70038083F
:10069000C0023908C600C6173A08C5003B08C400A6
:1006A000C3010310C60CC50CC40CC30CC00B502BEB
:1006B000C11F5D2BC214FE2BC2104010C216BF30EA
:1006C00084008313132CC212C11B702B401C7B2B84
:1006D000C60CC50CC40CC30CF70A0319F92B7B2BF1
:1006E000C61B7E2B0310C30DC40DC50DC60DF7032D
:1006F0000319F92B702BC217A62BC2133D08C1009A
:10070000C11F842BC617F22BC613F22B3D08C6005F
:10071000C6173E08C5003F08C400C11F932BC6136F
:100720004215FE2B4211C3014010BB3084008313DD
:10073000132CC11BBC2B3908C100401CA62BC60CB6
:10074000C50CC40CC30CF70A0319F92BC31FB72B34
:10075000C40A031DB72BC50A031DB72BC60A031D08
:10076000B72BC60CC50CC40CF70A0319F92B421B96
:100770003B2BC21B7D2BDB2B8030C606C61FC42B38
:10078000FE2B3D08C100D12B3908C100C608031D4E
:10079000D12BC508031DD12BC408031DD12BF70194
:1007A000F22BC61BDB2B0310C30DC40DC50DC60DEC
:1007B000F70BD12BF92BC11FDF2BC617F22BC6135A
:1007C000F22B3C08F7003D08C6003E08C5003F0874
:1007D000C400F22B3808F7003908C6003A08C500F3
:1007E0003B08C4004608F8004508F9004408FA0030
:1007F000312CF701F801F901FA01312CC301C409C8
:10080000C509C609C309C30A031D0C2CC40A031D6C
:100810000C2CC50A0319C60A42181A2BC2185C2BE5
:100820004219922BC12B0008C407031C1D2CC50ABA
:10083000031D1D2CC60A0319401484030008C507B4
:10084000031C252CC60A0319401484030008801FCA
:10085000803AC60703184014421A212BC21A632B90
:10086000992B83120800F001EF01EE017F30ED00BB
:100870007E308316A0008030A100A201A3017A304F
:10088000A4002A30A500AA30A600A330A700753026
:10089000A800B630A9000930AA00B430AB006F3010
:1008A000AC004F30AD00B630AE00AA30AF006930BA
:1008B000B0008B30B100F630B200E830B3008312E4
:1008C00064088316B700831263088316B600831288
:1008D00062088316B500831261088316B400BB0159
:1008E000BA01B901B8018312AC22031C7A2C620848
:1008F000803AE20064088316BB0083126308831603
:10090000BA00831262088316B90083126108831645
:10091000B8008330BF00F930BE002230BD007E3009
:10092000BC00831249207A088316B7007908B60004
:100930007808B5007708B4008E30F7003408F70265
:100940003508F9003608F800F917F7080319B32C31
:100950000310F908031DAF2CF8080319B32CF90C88
:10096000F80CF70BA82CB51FBA2CF809F909F80AEE
:100970000319F90A7808F100831264088316BB0092
:10098000831263088316BA00831262088316B900C3
:10099000831261088316B8008330BF00F930BE00AF
:1009A0002230BD007E30BC00831249207A08FE0050
:1009B0007908FD007808FC007708FB008316B90170
:1009C0007108B80083128A2183147E088316BB0045
:1009D0007D08BA007C08B9007B08B8007A08BF001F
:1009E0007908BE007808BD007708BC008312ED22AC
:1009F0007A08F6007908F5007808F4007708F30023
:100A00000330F105F1080319092D7108023C031D9B
:100A1000252D76088316BB007508BA007408B90046
:100A20007308B800DB30BF000F30BE004930BD0096
:100A30007F30BC00831249207A08EC007908EB0073
:100A40007808EA007708E900902D710B5C2D83147B
:100A50008316BB01BA01B9017F30B8007608BF0028
:100A60007508BE007408BD007308BC008312ED2237
:100A70007A08FE007908FD007808FC007708FB0082
:100A80007E088316BB007D08BA007C08B9007B088D
:100A9000B800DB30BF000F30BE004930BD007F30F2
:100AA000BC00831249207A08EC007908EB00780832
:100AB000EA007708E900902D831476088316BB00BE
:100AC0007508BA007408B9007308B800BF01BE0108
:100AD000BD017F30BC008312ED227A08FE00790848
:100AE000FD007808FC007708FB007A088316BB003D
:100AF0007908BA007808B9007708B800DB30BF0081
:100B00000F30BE004930BD007F30BC008312492049
:100B10007A08EC007908EB007808EA007708E90029
:100B2000E801E701E6017F30E5006C088316BB00B1
:100B300083126B088316BA0083126A088316B90001
:100B4000831269088316B80083126C088316BF00ED
:100B500083126B088316BE0083126A088316BD00D9
:100B6000831269088316BC00831249207A08EC00BE
:100B70007908EB007808EA007708E900F2017208CA
:100B8000043C031C472E70088316BB0083126F08B9
:100B90008316BA0083126E088316B90083126D089B
:100BA0008316B80083126C088316BF0083126B088B
:100BB0008316BE0083126A088316BD00831269087B
:100BC0008316BC00831249207A08F0007908EF00F0
:100BD0007808EE007708ED00720DF700F70DFC3095
:100BE000F7057708A03E840083130008FB00840A01
:100BF0000008FC00840A0008FD00840A0008FE00CA
:100C00008316BB007D08BA007C08B9007B08B800D9
:100C10007008BF0083126F088316BE0083126E082F
:100C20008316BD0083126D088316BC008312492011
:100C3000FC010408FB007C10831B7C1483106808F3
:100C40008316BB00831267088316BA0083126608F6
:100C50008316B900831265088316B8007A08BF00AE
:100C60007908BE007808BD007708BC008312ED2229
:100C70007B08840083137C1883177A08E8007908BE
:100C8000E7007808E6007708E500F20ABF2D710852
:100C9000023C03194D2E710B502E6608803AE60077
:100CA0006508F7006608F8006708F9006808FA00A8
:100CB00008005008E4004F08E3004E08E2004D0829
:100CC000E10033247A08D4007908D3007808D200F0
:100CD0007708D10054088316B7008312530883168F
:100CE000B600831252088316B5008312510883168A
:100CF000B400BB01BA01B901B8018312AC22031DD3
:100D00008A2EF630F7004030F8009730F900CE30E8
:100D1000FA00D62E5008DC004F08DB004E08DA003F
:100D20004D08D90083145C088316BB0083125B084E
:100D30008316BA0083125A088316B9008312590821
:100D40008316B800DB30BF000F30BE004930BD0055
:100D50007F30BC008312ED227A08E0007908DF00C2
:100D60007808DE007708DD007A08E4007908E300FF
:100D70007808E2007708E10033247A08D80079087F
:100D8000D7007808D6007708D5005808DC00570847
:100D9000DB005608DA005508D9005408E000530873
:100DA000DF005208DE005108DD00C0208A150A125B
:100DB0004B2B0B08CE008B13831603178C170C14C8
:100DC0000000000083120313CE1B8B170318112F92
:100DD00003170C087F390313CE0003170D08031304
:100DE000CF0003170F080313D0004E080C1EF62E79
:100DF00099004F0803178D000313500803178F0045
:100E000003130B08D1008B13831603178C170C14D4
:100E10000000000083120313D11B8B17CD0B112F81
:100E2000312F03170C0D0E0D7F390313CE0003175E
:100E30000D080313CF0003170F080313D0004E084B
:100E40000C1E202F99004F0803178D000313500824
:100E500003178F008D0A03198F0A03100313CD0B9C
:100E6000D92E0800D5010408D4005510831B551451
:100E70004E0EF038D000D007E23ED100323ED30013
:100E80004E080F39D107D107D307E93ED200D20768
:100E9000D2074D0E0F39D207D307D20DD30DD30988
:100EA000D30D4D080F39D307D00D0730CF000A30CE
:100EB000D307D203031C582FD207D103031C5C2F86
:100EC000D107D003031C602FD007CF03031C642F6E
:100ED0004F30840083130730540554138407533074
:100EE0000402031954170008F700031D7F2F541B39
:100EF0007F2F541A872FD4197F2F2030822FD4159B
:100F000054123030F70777080C1E842F9900840A9A
:100F1000541F6F2F8A150A12CA2B5E08B63CDE00DA
:100F2000FA015F08E200DF170310DF0CE00CE10CB0
:100F3000FA0CF90CF80CF70CDE0B942FE21FAB2F18
:100F4000F709F809F909FA09F70A0319F80A031960
:100F5000F90A0319FA0A08008318B12F66308400D1
:100F60008313F701F801F901FA01E601E701E8014D
:100F7000E90165086404630462040319EF2F20305B
:100F8000EA000310DE0DDF0DE00DE10DE60DE70DCB
:100F9000E80DE90D65086902031DD82F6408680291
:100FA000031DD82F63086702031DD82F620866024D
:100FB000031CE92F6208E6026308031C630FE702C3
:100FC0006408031C640FE8026508031C650FE9024E
:100FD0000314F70DF80DF90DFA0DEA0BC12F660891
:100FE0008000840A67088000840A68088000840AF8
:060FF00069088000080002
:101000000408D2005108D400031929285008831677
:10101000BB0083124F088316BA0083124E08831652
:10102000B90083124D088316B800BF01BE012030FD
:10103000BD008230BC008A11831249208A157A08CB
:10104000D0007908CF007808CE007708CD00D40B07
:1010500006285008E1004F08E0004E08DF004D0868
:10106000DE008A118D278A157A08D0007908CF0012
:101070007808CE007708CD00D01F4B28D203D216B7
:10108000CD09CE09CF09D009CD0A0319CE0A03191B
:10109000CF0A0319D00A3B30D9009A30D800CA30A1
:1010A000D700D6010A30D40051080319D20A83149C
:1010B0004D30840083135008E1004F08E0004E08D3
:1010C000DF004D08DE005908E5005808E400570825
:1010D000E3005608E2008A11AC278A157808F70861
:1010E000031D8528510A5402031985285208031943
:1010F00087280F39540203197F280318BB28D21BF5
:10110000BB28521B87282030B6282030D205D21E9B
:101110009628D2125108031DD2037708D2002D3031
:101120000C1E902899005208F700D2015108540271
:10113000031DA5287708D2002E300C1E9D2899008B
:101140005208F7002030D20500303030D21EB628C9
:10115000D2125108031DD2037708D2002D300C1E85
:10116000AF2899005208F700D2013030F70777080E
:101170000C1EB828990083105908E1005808E000B7
:101180005708DF005608DE00E501E401E3010A30FC
:10119000E2008A11AC278A157A08D9007908D800AC
:1011A0007808D7007708D600D40B572808003308F2
:1011B00084008313341883175E088000840A80013A
:1011C000B30A0319B40A08000B08CD008B13831669
:1011D00003178C170C140000000083120313CD1B9F
:1011E0008B1703170C087F39031938290313CD0017
:1011F00003170D080313CE0003170F080313CF00C6
:101200004D08DE00D7204E0803178D0003134F084A
:1012100003178F0003130B08D0008B1383160317DB
:101220008C170C140000000083120313D01B8B17C3
:1012300003170C0D0E0D7F39031938290313CD0048
:1012400003170D080313CE0003170F080313CF0075
:101250004D08DE00D7204E0803178D0003134F08FA
:1012600003178F008D0A03198F0A0313E42803174D
:10127000031308000408D6005508D8000319632991
:1012800054088316BB00831253088316BA008312D6
:1012900052088316B900831251088316B800BF01A3
:1012A000BE012030BD008230BC008A11831249206B
:1012B0008A157A08D4007908D3007808D200770814
:1012C000D100D80B40295408E1005308E00052082F
:1012D000DF005108DE008A118D278A157A08D400B4
:1012E0007908D3007808D2007708D100D41F852967
:1012F000D603D616D109D209D309D409D10A0319C4
:10130000D20A0319D30A0319D40A3B30DD009A30FC
:10131000DC00CA30DB00DA010A30D80055080319B6
:10132000D60A83145130840083135408E100530813
:10133000E0005208DF005108DE005D08E5005C08AF
:10134000E4005B08E3005A08E2008A11AC278A1522
:101350007808F708031DBF29550A58020319BF2949
:1013600056080319C1290F3958020319B92903185E
:10137000F129D61BF129561BC1292030ED29203037
:10138000D605D61ECF29D6125508031DD6037708D9
:10139000D6002D30DE00D7205608F700D6015508BC
:1013A0005802031DDD297708D6002E30DE00D72035
:1013B0005608F7002030D60500303030D61EED2913
:1013C000D6125508031DD6037708D6002D30DE004F
:1013D000D7205608F700D6013030F7077708DE002F
:1013E000D72083105D08E1005C08E0005B08DF00A7
:1013F0005A08DE00E501E401E3010A30E2008A1147
:10140000AC278A157A08DD007908DC007808DB0053
:101410007708DA00D80B9129080003081F398300E8
:10142000713083168F0090010F08031787110C305D
:1014300003139900A2309800903083129800FF3077
:10144000A000A0152008831687008312201620080C
:10145000831687001330930028308312940083167C
:10146000941714138312B401B301831603170908E8
:10147000C039890003131F129F1200300317880020
:10148000831287018801890183133530031390008B
:10149000831603170908C039890003131F129F120E
:1014A000013003178800831203131F179F17831639
:1014B0009F1783121F140030F8001F08C3397804E7
:1014C0009F003230CE008A1135208A159F149F1854
:1014D000672A83161E088312A1001E08A200260890
:1014E0008316BB00831225088316BA0083122408D2
:1014F0008316B900831223088316B800BF01BE010A
:101500002030BD008130BC008A11831249208A1529
:101510007A08D0007908CF007808CE007708CD008F
:101520007A08DC007908DB007808DA007708D9004F
:10153000E001C030DF007F30DE008830DD008A113E
:10154000C0208A157A08A6007908A5007808A400AA
:101550007708A30026088316BB008312250883168C
:10156000BA00831224088316B90083122308831655
:10157000B800BF01BE011630BD008730BC008A1123
:10158000831249208A157A08D0007908CF0078089C
:10159000CE007708CD007A08DC007908DB007808F7
:1015A000DA007708D900E001DF012030DE00813069
:1015B000DD008A11C0208A157A08A6007908A500E6
:1015C0007808A4007708A3008A11A9298A157A0847
:1015D000AA007908A9007808A8007708A700831650
:1015E00086178312861B1E2B2A08B8002908B7000D
:1015F0002808B6002708B5008A115C228A15013038
:10160000CD008A116D228A15F8010C30F7003930AF
:101610008400831378088A1104208A158000F80A50
:10162000840AF70B0A2BD0013930CF008A118322AC
:101630008A156430CE008A1135208A152608831653
:10164000BB00831225088316BA0083122408831670
:10165000B900831223088316B8003930BF00FA306E
:10166000BE000E30BD007930BC008A1183124920C3
:101670008A157A08B2007908B1007808B0007708B6
:10168000AF003208D0003108CF003008CE002F085C
:10169000CD008A11592E8A157A08D0007908CF001A
:1016A0007808CE007708CD007A088316BB00831235
:1016B00079088316BA00831278088316B90083125A
:1016C00077088316B80083122A088316BF00831296
:1016D00029088316BE00831228088316BD008312D2
:1016E00027088316BC008A11831249208A157A08BC
:1016F000D0007908CF007808CE007708CD00D2015D
:101700000408D1005210831B521483107A088316E8
:10171000BB00831279088316BA00831278088316F7
:10172000B900831277088316B8008312380883162D
:10173000BF00831237088316BE0083123608831653
:10174000BD00831235088316BC008A118312ED2276
:101750008A15510884008313521883177A08AE0043
:101760007908AD007808AC007708AB001430031797
:101770008D0000308F00031008300313CD008A1154
:10178000D9268A15103084002208CE002108CD0009
:101790008A11322F8A15193003178D0000308F00FF
:1017A000031409300313CD008A11D9268A15893014
:1017B00084002608D0002508CF002408CE00230886
:1017C000CD000230D1000020203003178D00003002
:1017D0008F00031007300313CD008A11D9268A1514
:1017E000893084002A08D0002908CF002808CE00BC
:1017F0002708CD000230D1000020253003178D00CE
:1018000000308F0003140A300313CD008A11D9264B
:101810008A15893084002E08D0002D08CF002C08AE
:10182000CE002B08CD000230D10000202B30031752
:101830008D0000308F00031405300313CD008A1192
:10184000D9268A156430CE008A1135208A158A116E
:101850005C228A150130CD008A116D228A15443030
:10186000C7006530C8006730C9003A30CA00CB01F4
:10187000D0014730CF008A1183228A158316B70121
:10188000B6013430B5008530B400831226088316C3
:10189000BB00831225088316BA008312240883161E
:1018A000B900831223088316B8008A118312AC2270
:1018B0008A1503185D2C031D692C4608B4004508E1
:1018C000B3002F3003178D0000308F000313E42086
:1018D0007A2C4608B4004508B300893084002608F5
:1018E000D4002508D3002408D2002308D1000130F9
:1018F000D5003A210530CD008A116D228A1546089F
:10190000D0004508CF008A1183228A150930CD0006
:101910008A116D228A154430C7006930C8007330BF
:10192000C9003A30CA00CB01D0014730CF008A113C
:1019300083228A152A08DC002908DB002808DA003F
:101940002708D900E001DF014830DE008530DD00E6
:101950008A11C0208A157A08D0007908CF0078084B
:10196000CE007708CD004608B4004508B3008930A2
:1019700084007A08D4007908D3007808D200770868
:10198000D1000230D5003A214608D0004508CF00EA
:101990008A1183228A151130CD008A116D228A1591
:1019A0007430C7006130C8006C30C900CA003A30DA
:1019B000CB00CC01D0014730CF008A1183228A1599
:1019C0008316B701B6013430B5008530B4008312F8
:1019D00026088316BB00831225088316BA008312DB
:1019E00024088316B900831223088316B8008A11CD
:1019F0008312AC228A150318FF2C031D0B2D4608F9
:101A0000B4004508B300323003178D0000308F005A
:101A10000313E4201C2D4608B4004508B3008930A8
:101A200084002E08D4002D08D3002C08D2002B08E7
:101A3000D1000130D5003A214608D0004508CF003A
:101A40008A1183228A150230CD009630CE008A1189
:0C1A500035208A15CD0B252D662A630079
:04400E00C42FFF3F7D
:00000001FF
;PIC16F886
;CRC=7052  CREATED="05-Apr-17 16:09"
